{
  "_format": "hh-sol-artifact-1",
  "contractName": "Curves",
  "sourceName": "contracts/Curves.sol",
  "abi": [
    {
      "inputs": [
        {
          "internalType": "address",
          "name": "curvesERC20Factory_",
          "type": "address"
        },
        {
          "internalType": "address",
          "name": "feeRedistributor_",
          "type": "address"
        }
      ],
      "stateMutability": "nonpayable",
      "type": "constructor"
    },
    {
      "inputs": [],
      "name": "CannotSendFunds",
      "type": "error"
    },
    {
      "inputs": [],
      "name": "ContractCannotReceiveTransfer",
      "type": "error"
    },
    {
      "inputs": [],
      "name": "CurveAlreadyExists",
      "type": "error"
    },
    {
      "inputs": [],
      "name": "ERC20TokenAlreadyMinted",
      "type": "error"
    },
    {
      "inputs": [],
      "name": "ExceededMaxBuyAmount",
      "type": "error"
    },
    {
      "inputs": [],
      "name": "InsufficientBalance",
      "type": "error"
    },
    {
      "inputs": [],
      "name": "InsufficientPayment",
      "type": "error"
    },
    {
      "inputs": [],
      "name": "InvalidERC20Metadata",
      "type": "error"
    },
    {
      "inputs": [],
      "name": "InvalidFeeDefinition",
      "type": "error"
    },
    {
      "inputs": [],
      "name": "InvalidPresaleStartTime",
      "type": "error"
    },
    {
      "inputs": [],
      "name": "LastTokenCannotBeSold",
      "type": "error"
    },
    {
      "inputs": [],
      "name": "NonIntegerDepositAmount",
      "type": "error"
    },
    {
      "inputs": [],
      "name": "PresaleUnavailable",
      "type": "error"
    },
    {
      "inputs": [],
      "name": "SaleNotOpen",
      "type": "error"
    },
    {
      "inputs": [],
      "name": "TokenAbsentForCurvesTokenSubject",
      "type": "error"
    },
    {
      "inputs": [],
      "name": "UnauthorizedCurvesTokenSubject",
      "type": "error"
    },
    {
      "inputs": [],
      "name": "UnverifiedProof",
      "type": "error"
    },
    {
      "anonymous": false,
      "inputs": [
        {
          "indexed": true,
          "internalType": "address",
          "name": "curvesTokenSubject",
          "type": "address"
        },
        {
          "indexed": true,
          "internalType": "address",
          "name": "erc20token",
          "type": "address"
        },
        {
          "indexed": false,
          "internalType": "string",
          "name": "name",
          "type": "string"
        },
        {
          "indexed": false,
          "internalType": "string",
          "name": "symbol",
          "type": "string"
        }
      ],
      "name": "TokenDeployed",
      "type": "event"
    },
    {
      "anonymous": false,
      "inputs": [
        {
          "indexed": false,
          "internalType": "address",
          "name": "trader",
          "type": "address"
        },
        {
          "indexed": false,
          "internalType": "address",
          "name": "subject",
          "type": "address"
        },
        {
          "indexed": false,
          "internalType": "bool",
          "name": "isBuy",
          "type": "bool"
        },
        {
          "indexed": false,
          "internalType": "uint256",
          "name": "tokenAmount",
          "type": "uint256"
        },
        {
          "indexed": false,
          "internalType": "uint256",
          "name": "ethAmount",
          "type": "uint256"
        },
        {
          "indexed": false,
          "internalType": "uint256",
          "name": "protocolEthAmount",
          "type": "uint256"
        },
        {
          "indexed": false,
          "internalType": "uint256",
          "name": "subjectEthAmount",
          "type": "uint256"
        },
        {
          "indexed": false,
          "internalType": "uint256",
          "name": "supply",
          "type": "uint256"
        }
      ],
      "name": "Trade",
      "type": "event"
    },
    {
      "anonymous": false,
      "inputs": [
        {
          "indexed": true,
          "internalType": "address",
          "name": "curvesTokenSubject",
          "type": "address"
        },
        {
          "indexed": true,
          "internalType": "address",
          "name": "from",
          "type": "address"
        },
        {
          "indexed": true,
          "internalType": "address",
          "name": "to",
          "type": "address"
        },
        {
          "indexed": false,
          "internalType": "uint256",
          "name": "value",
          "type": "uint256"
        }
      ],
      "name": "Transfer",
      "type": "event"
    },
    {
      "anonymous": false,
      "inputs": [
        {
          "indexed": true,
          "internalType": "address",
          "name": "presale",
          "type": "address"
        },
        {
          "indexed": true,
          "internalType": "bytes32",
          "name": "root",
          "type": "bytes32"
        }
      ],
      "name": "WhitelistUpdated",
      "type": "event"
    },
    {
      "inputs": [],
      "name": "DEFAULT_NAME",
      "outputs": [
        {
          "internalType": "string",
          "name": "",
          "type": "string"
        }
      ],
      "stateMutability": "view",
      "type": "function"
    },
    {
      "inputs": [],
      "name": "DEFAULT_SYMBOL",
      "outputs": [
        {
          "internalType": "string",
          "name": "",
          "type": "string"
        }
      ],
      "stateMutability": "view",
      "type": "function"
    },
    {
      "inputs": [
        {
          "internalType": "address",
          "name": "curvesTokenSubject",
          "type": "address"
        },
        {
          "internalType": "uint256",
          "name": "amount",
          "type": "uint256"
        }
      ],
      "name": "buyCurvesToken",
      "outputs": [],
      "stateMutability": "payable",
      "type": "function"
    },
    {
      "inputs": [
        {
          "internalType": "address",
          "name": "curvesTokenSubject",
          "type": "address"
        },
        {
          "internalType": "uint256",
          "name": "amount",
          "type": "uint256"
        },
        {
          "internalType": "uint256",
          "name": "startTime",
          "type": "uint256"
        },
        {
          "internalType": "bytes32",
          "name": "merkleRoot",
          "type": "bytes32"
        },
        {
          "internalType": "uint256",
          "name": "maxBuy",
          "type": "uint256"
        }
      ],
      "name": "buyCurvesTokenForPresale",
      "outputs": [],
      "stateMutability": "payable",
      "type": "function"
    },
    {
      "inputs": [
        {
          "internalType": "address",
          "name": "curvesTokenSubject",
          "type": "address"
        },
        {
          "internalType": "uint256",
          "name": "amount",
          "type": "uint256"
        },
        {
          "internalType": "bytes32[]",
          "name": "proof",
          "type": "bytes32[]"
        }
      ],
      "name": "buyCurvesTokenWhitelisted",
      "outputs": [],
      "stateMutability": "payable",
      "type": "function"
    },
    {
      "inputs": [
        {
          "internalType": "address",
          "name": "curvesTokenSubject",
          "type": "address"
        },
        {
          "internalType": "uint256",
          "name": "amount",
          "type": "uint256"
        },
        {
          "internalType": "string",
          "name": "name",
          "type": "string"
        },
        {
          "internalType": "string",
          "name": "symbol",
          "type": "string"
        }
      ],
      "name": "buyCurvesTokenWithName",
      "outputs": [],
      "stateMutability": "payable",
      "type": "function"
    },
    {
      "inputs": [],
      "name": "curvesERC20Factory",
      "outputs": [
        {
          "internalType": "address",
          "name": "",
          "type": "address"
        }
      ],
      "stateMutability": "view",
      "type": "function"
    },
    {
      "inputs": [
        {
          "internalType": "address",
          "name": "",
          "type": "address"
        },
        {
          "internalType": "address",
          "name": "",
          "type": "address"
        }
      ],
      "name": "curvesTokenBalance",
      "outputs": [
        {
          "internalType": "uint256",
          "name": "",
          "type": "uint256"
        }
      ],
      "stateMutability": "view",
      "type": "function"
    },
    {
      "inputs": [
        {
          "internalType": "address",
          "name": "",
          "type": "address"
        }
      ],
      "name": "curvesTokenSupply",
      "outputs": [
        {
          "internalType": "uint256",
          "name": "",
          "type": "uint256"
        }
      ],
      "stateMutability": "view",
      "type": "function"
    },
    {
      "inputs": [
        {
          "internalType": "address",
          "name": "curvesTokenSubject",
          "type": "address"
        },
        {
          "internalType": "uint256",
          "name": "amount",
          "type": "uint256"
        }
      ],
      "name": "deposit",
      "outputs": [],
      "stateMutability": "nonpayable",
      "type": "function"
    },
    {
      "inputs": [
        {
          "internalType": "address",
          "name": "",
          "type": "address"
        }
      ],
      "name": "externalCurvesToSubject",
      "outputs": [
        {
          "internalType": "address",
          "name": "",
          "type": "address"
        }
      ],
      "stateMutability": "view",
      "type": "function"
    },
    {
      "inputs": [
        {
          "internalType": "address",
          "name": "",
          "type": "address"
        }
      ],
      "name": "externalCurvesTokens",
      "outputs": [
        {
          "internalType": "string",
          "name": "name",
          "type": "string"
        },
        {
          "internalType": "string",
          "name": "symbol",
          "type": "string"
        },
        {
          "internalType": "address",
          "name": "token",
          "type": "address"
        }
      ],
      "stateMutability": "view",
      "type": "function"
    },
    {
      "inputs": [],
      "name": "feeRedistributor",
      "outputs": [
        {
          "internalType": "contract FeeSplitter",
          "name": "",
          "type": "address"
        }
      ],
      "stateMutability": "view",
      "type": "function"
    },
    {
      "inputs": [],
      "name": "feesEconomics",
      "outputs": [
        {
          "internalType": "address",
          "name": "protocolFeeDestination",
          "type": "address"
        },
        {
          "internalType": "uint256",
          "name": "protocolFeePercent",
          "type": "uint256"
        },
        {
          "internalType": "uint256",
          "name": "subjectFeePercent",
          "type": "uint256"
        },
        {
          "internalType": "uint256",
          "name": "referralFeePercent",
          "type": "uint256"
        },
        {
          "internalType": "uint256",
          "name": "holdersFeePercent",
          "type": "uint256"
        },
        {
          "internalType": "uint256",
          "name": "maxFeePercent",
          "type": "uint256"
        }
      ],
      "stateMutability": "view",
      "type": "function"
    },
    {
      "inputs": [
        {
          "internalType": "address",
          "name": "curvesTokenSubject",
          "type": "address"
        },
        {
          "internalType": "uint256",
          "name": "amount",
          "type": "uint256"
        }
      ],
      "name": "getBuyPrice",
      "outputs": [
        {
          "internalType": "uint256",
          "name": "",
          "type": "uint256"
        }
      ],
      "stateMutability": "view",
      "type": "function"
    },
    {
      "inputs": [
        {
          "internalType": "address",
          "name": "curvesTokenSubject",
          "type": "address"
        },
        {
          "internalType": "uint256",
          "name": "amount",
          "type": "uint256"
        }
      ],
      "name": "getBuyPriceAfterFee",
      "outputs": [
        {
          "internalType": "uint256",
          "name": "",
          "type": "uint256"
        }
      ],
      "stateMutability": "view",
      "type": "function"
    },
    {
      "inputs": [
        {
          "internalType": "uint256",
          "name": "price",
          "type": "uint256"
        }
      ],
      "name": "getFees",
      "outputs": [
        {
          "internalType": "uint256",
          "name": "protocolFee",
          "type": "uint256"
        },
        {
          "internalType": "uint256",
          "name": "subjectFee",
          "type": "uint256"
        },
        {
          "internalType": "uint256",
          "name": "referralFee",
          "type": "uint256"
        },
        {
          "internalType": "uint256",
          "name": "holdersFee",
          "type": "uint256"
        },
        {
          "internalType": "uint256",
          "name": "totalFee",
          "type": "uint256"
        }
      ],
      "stateMutability": "view",
      "type": "function"
    },
    {
      "inputs": [
        {
          "internalType": "uint256",
          "name": "supply",
          "type": "uint256"
        },
        {
          "internalType": "uint256",
          "name": "amount",
          "type": "uint256"
        }
      ],
      "name": "getPrice",
      "outputs": [
        {
          "internalType": "uint256",
          "name": "",
          "type": "uint256"
        }
      ],
      "stateMutability": "pure",
      "type": "function"
    },
    {
      "inputs": [
        {
          "internalType": "address",
          "name": "curvesTokenSubject",
          "type": "address"
        },
        {
          "internalType": "uint256",
          "name": "amount",
          "type": "uint256"
        }
      ],
      "name": "getSellPrice",
      "outputs": [
        {
          "internalType": "uint256",
          "name": "",
          "type": "uint256"
        }
      ],
      "stateMutability": "view",
      "type": "function"
    },
    {
      "inputs": [
        {
          "internalType": "address",
          "name": "curvesTokenSubject",
          "type": "address"
        },
        {
          "internalType": "uint256",
          "name": "amount",
          "type": "uint256"
        }
      ],
      "name": "getSellPriceAfterFee",
      "outputs": [
        {
          "internalType": "uint256",
          "name": "",
          "type": "uint256"
        }
      ],
      "stateMutability": "view",
      "type": "function"
    },
    {
      "inputs": [
        {
          "internalType": "address",
          "name": "",
          "type": "address"
        }
      ],
      "name": "managers",
      "outputs": [
        {
          "internalType": "bool",
          "name": "",
          "type": "bool"
        }
      ],
      "stateMutability": "view",
      "type": "function"
    },
    {
      "inputs": [
        {
          "internalType": "address",
          "name": "curvesTokenSubject",
          "type": "address"
        }
      ],
      "name": "mint",
      "outputs": [],
      "stateMutability": "nonpayable",
      "type": "function"
    },
    {
      "inputs": [],
      "name": "owner",
      "outputs": [
        {
          "internalType": "address",
          "name": "",
          "type": "address"
        }
      ],
      "stateMutability": "view",
      "type": "function"
    },
    {
      "inputs": [
        {
          "internalType": "address",
          "name": "",
          "type": "address"
        },
        {
          "internalType": "address",
          "name": "",
          "type": "address"
        }
      ],
      "name": "presalesBuys",
      "outputs": [
        {
          "internalType": "uint256",
          "name": "",
          "type": "uint256"
        }
      ],
      "stateMutability": "view",
      "type": "function"
    },
    {
      "inputs": [
        {
          "internalType": "address",
          "name": "",
          "type": "address"
        }
      ],
      "name": "presalesMeta",
      "outputs": [
        {
          "internalType": "uint256",
          "name": "startTime",
          "type": "uint256"
        },
        {
          "internalType": "bytes32",
          "name": "merkleRoot",
          "type": "bytes32"
        },
        {
          "internalType": "uint256",
          "name": "maxBuy",
          "type": "uint256"
        }
      ],
      "stateMutability": "view",
      "type": "function"
    },
    {
      "inputs": [
        {
          "internalType": "address",
          "name": "",
          "type": "address"
        }
      ],
      "name": "referralFeeDestination",
      "outputs": [
        {
          "internalType": "address",
          "name": "",
          "type": "address"
        }
      ],
      "stateMutability": "view",
      "type": "function"
    },
    {
      "inputs": [
        {
          "internalType": "address",
          "name": "curvesTokenSubject",
          "type": "address"
        },
        {
          "internalType": "uint256",
          "name": "amount",
          "type": "uint256"
        }
      ],
      "name": "sellCurvesToken",
      "outputs": [],
      "stateMutability": "nonpayable",
      "type": "function"
    },
    {
      "inputs": [
        {
          "internalType": "address",
          "name": "curvesTokenSubject",
          "type": "address"
        },
        {
          "internalType": "uint256",
          "name": "amount",
          "type": "uint256"
        }
      ],
      "name": "sellExternalCurvesToken",
      "outputs": [],
      "stateMutability": "nonpayable",
      "type": "function"
    },
    {
      "inputs": [
        {
          "internalType": "address",
          "name": "factory_",
          "type": "address"
        }
      ],
      "name": "setERC20Factory",
      "outputs": [],
      "stateMutability": "nonpayable",
      "type": "function"
    },
    {
      "inputs": [
        {
          "internalType": "uint256",
          "name": "subjectFeePercent_",
          "type": "uint256"
        },
        {
          "internalType": "uint256",
          "name": "referralFeePercent_",
          "type": "uint256"
        },
        {
          "internalType": "uint256",
          "name": "holdersFeePercent_",
          "type": "uint256"
        }
      ],
      "name": "setExternalFeePercent",
      "outputs": [],
      "stateMutability": "nonpayable",
      "type": "function"
    },
    {
      "inputs": [
        {
          "internalType": "address",
          "name": "feeRedistributor_",
          "type": "address"
        }
      ],
      "name": "setFeeRedistributor",
      "outputs": [],
      "stateMutability": "nonpayable",
      "type": "function"
    },
    {
      "inputs": [
        {
          "internalType": "address",
          "name": "manager_",
          "type": "address"
        },
        {
          "internalType": "bool",
          "name": "value",
          "type": "bool"
        }
      ],
      "name": "setManager",
      "outputs": [],
      "stateMutability": "nonpayable",
      "type": "function"
    },
    {
      "inputs": [
        {
          "internalType": "uint256",
          "name": "maxFeePercent_",
          "type": "uint256"
        }
      ],
      "name": "setMaxFeePercent",
      "outputs": [],
      "stateMutability": "nonpayable",
      "type": "function"
    },
    {
      "inputs": [
        {
          "internalType": "address",
          "name": "curvesTokenSubject",
          "type": "address"
        },
        {
          "internalType": "string",
          "name": "name",
          "type": "string"
        },
        {
          "internalType": "string",
          "name": "symbol",
          "type": "string"
        }
      ],
      "name": "setNameAndSymbol",
      "outputs": [],
      "stateMutability": "nonpayable",
      "type": "function"
    },
    {
      "inputs": [
        {
          "internalType": "uint256",
          "name": "protocolFeePercent_",
          "type": "uint256"
        },
        {
          "internalType": "address",
          "name": "protocolFeeDestination_",
          "type": "address"
        }
      ],
      "name": "setProtocolFeePercent",
      "outputs": [],
      "stateMutability": "nonpayable",
      "type": "function"
    },
    {
      "inputs": [
        {
          "internalType": "address",
          "name": "curvesTokenSubject",
          "type": "address"
        },
        {
          "internalType": "address",
          "name": "referralFeeDestination_",
          "type": "address"
        }
      ],
      "name": "setReferralFeeDestination",
      "outputs": [],
      "stateMutability": "nonpayable",
      "type": "function"
    },
    {
      "inputs": [
        {
          "internalType": "bytes32",
          "name": "merkleRoot",
          "type": "bytes32"
        }
      ],
      "name": "setWhitelist",
      "outputs": [],
      "stateMutability": "nonpayable",
      "type": "function"
    },
    {
      "inputs": [
        {
          "internalType": "string",
          "name": "",
          "type": "string"
        }
      ],
      "name": "symbolToSubject",
      "outputs": [
        {
          "internalType": "address",
          "name": "",
          "type": "address"
        }
      ],
      "stateMutability": "view",
      "type": "function"
    },
    {
      "inputs": [
        {
          "internalType": "address",
          "name": "to",
          "type": "address"
        }
      ],
      "name": "transferAllCurvesTokens",
      "outputs": [],
      "stateMutability": "nonpayable",
      "type": "function"
    },
    {
      "inputs": [
        {
          "internalType": "address",
          "name": "curvesTokenSubject",
          "type": "address"
        },
        {
          "internalType": "address",
          "name": "to",
          "type": "address"
        },
        {
          "internalType": "uint256",
          "name": "amount",
          "type": "uint256"
        }
      ],
      "name": "transferCurvesToken",
      "outputs": [],
      "stateMutability": "nonpayable",
      "type": "function"
    },
    {
      "inputs": [
        {
          "internalType": "address",
          "name": "owner_",
          "type": "address"
        }
      ],
      "name": "transferOwnership",
      "outputs": [],
      "stateMutability": "nonpayable",
      "type": "function"
    },
    {
      "inputs": [
        {
          "internalType": "address",
          "name": "curvesTokenSubject",
          "type": "address"
        },
        {
          "internalType": "address",
          "name": "caller",
          "type": "address"
        },
        {
          "internalType": "bytes32[]",
          "name": "proof",
          "type": "bytes32[]"
        }
      ],
      "name": "verifyMerkle",
      "outputs": [],
      "stateMutability": "view",
      "type": "function"
    },
    {
      "inputs": [
        {
          "internalType": "address",
          "name": "curvesTokenSubject",
          "type": "address"
        },
        {
          "internalType": "uint256",
          "name": "amount",
          "type": "uint256"
        }
      ],
      "name": "withdraw",
      "outputs": [],
      "stateMutability": "nonpayable",
      "type": "function"
    }
  ],
  "bytecode": "0x608060405260006004553480156200001657600080fd5b5060405162005e4d38038062005e4d83398181016040528101906200003c919062000174565b336000806101000a81548173ffffffffffffffffffffffffffffffffffffffff021916908373ffffffffffffffffffffffffffffffffffffffff16021790555060018060003373ffffffffffffffffffffffffffffffffffffffff1673ffffffffffffffffffffffffffffffffffffffff16815260200190815260200160002060006101000a81548160ff02191690831515021790555081600260006101000a81548173ffffffffffffffffffffffffffffffffffffffff021916908373ffffffffffffffffffffffffffffffffffffffff16021790555080600360006101000a81548173ffffffffffffffffffffffffffffffffffffffff021916908373ffffffffffffffffffffffffffffffffffffffff16021790555050506200020e565b6000815190506200016e81620001f4565b92915050565b600080604083850312156200018e576200018d620001ef565b5b60006200019e858286016200015d565b9250506020620001b1858286016200015d565b9150509250929050565b6000620001c882620001cf565b9050919050565b600073ffffffffffffffffffffffffffffffffffffffff82169050919050565b600080fd5b620001ff81620001bb565b81146200020b57600080fd5b50565b615c2f806200021e6000396000f3fe60806040526004361061025c5760003560e01c80638d7b0ea511610144578063d43761df116100b6578063f2fde38b1161007a578063f2fde38b14610937578063f3fef3a314610960578063f516b87914610989578063f518fbdd146109b2578063fd6fefab146109db578063fdff9b4d14610a185761025c565b8063d43761df1461084b578063d4bbdebd14610888578063d5a06d4c146108b1578063e1d27f4d146108f2578063e78267da1461091b5761025c565b80639b8744b3116101085780639b8744b314610736578063a5e90eee14610752578063ad5594701461077b578063c233d5a7146107b8578063ca71a92b146107e3578063d316223c1461080c5761025c565b80638d7b0ea51461063d5780638da5cb5b1461067a57806394664176146106a557806398c69648146106ce5780639ae71781146106f95761025c565b8063440bc7f3116101dd5780634da4708c116101a15780634da4708c1461052c5780634e291a76146105555780635cf4ee91146105855780636a627842146105c25780637c57222d146105eb57806380ea9d57146106145761025c565b8063440bc7f3146104375780634635256e1461046057806347e7ef241461049d5780634bcaad0b146104c65780634cded95c146105035761025c565b806325272fa61161022457806325272fa61461035d57806328eb60f0146103865780632927d3e8146103b15780632f4e0601146103f057806340e277bb1461040c5761025c565b80630928c577146102615780630a70c5e11461027d5780630f026f6d146102a657806316593dcf146102e35780632267a89c14610320575b600080fd5b61027b60048036038101906102769190614dfb565b610a55565b005b34801561028957600080fd5b506102a4600480360381019061029f9190615114565b610af3565b005b3480156102b257600080fd5b506102cd60048036038101906102c89190614dfb565b610bcb565b6040516102da9190615601565b60405180910390f35b3480156102ef57600080fd5b5061030a60048036038101906103059190614bd4565b610c01565b6040516103179190615601565b60405180910390f35b34801561032c57600080fd5b5061034760048036038101906103429190614dfb565b610c19565b6040516103549190615601565b60405180910390f35b34801561036957600080fd5b50610384600480360381019061037f9190614dfb565b610c4f565b005b34801561039257600080fd5b5061039b610e91565b6040516103a89190615548565b60405180910390f35b3480156103bd57600080fd5b506103d860048036038101906103d39190614bd4565b610eb7565b6040516103e7939291906155bc565b60405180910390f35b61040a60048036038101906104059190614eaa565b611011565b005b34801561041857600080fd5b506104216110ab565b60405161042e91906153e1565b60405180910390f35b34801561044357600080fd5b5061045e60048036038101906104599190614fc4565b6110d1565b005b34801561046c57600080fd5b5061048760048036038101906104829190614dfb565b611229565b6040516104949190615601565b60405180910390f35b3480156104a957600080fd5b506104c460048036038101906104bf9190614dfb565b61127c565b005b3480156104d257600080fd5b506104ed60048036038101906104e89190614c2e565b6115a6565b6040516104fa9190615601565b60405180910390f35b34801561050f57600080fd5b5061052a60048036038101906105259190614dfb565b6115cb565b005b34801561053857600080fd5b50610553600480360381019061054e9190614cdd565b6116bf565b005b34801561056157600080fd5b5061056a611736565b60405161057c969594939291906154cc565b60405180910390f35b34801561059157600080fd5b506105ac60048036038101906105a791906150d4565b611780565b6040516105b99190615601565b60405180910390f35b3480156105ce57600080fd5b506105e960048036038101906105e49190614bd4565b6118b6565b005b3480156105f757600080fd5b50610612600480360381019061060d9190615094565b611d00565b005b34801561062057600080fd5b5061063b60048036038101906106369190614bd4565b611e04565b005b34801561064957600080fd5b50610664600480360381019061065f9190614bd4565b611fe6565b60405161067191906153e1565b60405180910390f35b34801561068657600080fd5b5061068f612019565b60405161069c91906153e1565b60405180910390f35b3480156106b157600080fd5b506106cc60048036038101906106c79190614c6e565b61203d565b005b3480156106da57600080fd5b506106e36120f1565b6040516106f09190615563565b60405180910390f35b34801561070557600080fd5b50610720600480360381019061071b9190614dfb565b61212a565b60405161072d9190615601565b60405180910390f35b610750600480360381019061074b9190614f49565b612188565b005b34801561075e57600080fd5b5061077960048036038101906107749190614d30565b6123bc565b005b34801561078757600080fd5b506107a2600480360381019061079d9190614ff1565b612423565b6040516107af91906153e1565b60405180910390f35b3480156107c457600080fd5b506107cd61246c565b6040516107da9190615563565b60405180910390f35b3480156107ef57600080fd5b5061080a60048036038101906108059190614c2e565b6124a5565b005b34801561081857600080fd5b50610833600480360381019061082e9190614bd4565b61258e565b6040516108429392919061561c565b60405180910390f35b34801561085757600080fd5b50610872600480360381019061086d9190614c2e565b6125b8565b60405161087f9190615601565b60405180910390f35b34801561089457600080fd5b506108af60048036038101906108aa9190614bd4565b6125dd565b005b3480156108bd57600080fd5b506108d860048036038101906108d3919061503a565b61262d565b6040516108e9959493929190615653565b60405180910390f35b3480156108fe57600080fd5b5061091960048036038101906109149190614d70565b6126fa565b005b61093560048036038101906109309190614e3b565b612980565b005b34801561094357600080fd5b5061095e60048036038101906109599190614bd4565b612bf5565b005b34801561096c57600080fd5b5061098760048036038101906109829190614dfb565b612c44565b005b34801561099557600080fd5b506109b060048036038101906109ab9190614bd4565b61326e565b005b3480156109be57600080fd5b506109d960048036038101906109d4919061503a565b6132be565b005b3480156109e757600080fd5b50610a0260048036038101906109fd9190614bd4565b61338a565b604051610a0f91906153e1565b60405180910390f35b348015610a2457600080fd5b50610a3f6004803603810190610a3a9190614bd4565b6133bd565b604051610a4c919061552d565b60405180910390f35b6000600860008473ffffffffffffffffffffffffffffffffffffffff1673ffffffffffffffffffffffffffffffffffffffff16815260200190815260200160002060000154905060008114158015610aad5750428110155b15610ae4576040517f445dce4c00000000000000000000000000000000000000000000000000000000815260040160405180910390fd5b610aee83836133dd565b505050565b60011515600160003373ffffffffffffffffffffffffffffffffffffffff1673ffffffffffffffffffffffffffffffffffffffff16815260200190815260200160002060009054906101000a90505050600a60050154818385600a60010154610b5c919061576f565b610b66919061576f565b610b70919061576f565b1115610ba8576040517fb7f141f600000000000000000000000000000000000000000000000000000000815260040160405180910390fd5b82600a6002018190555081600a6003018190555080600a60040181905550505050565b600080610bd88484611229565b90506000610be58261262d565b9450505050508082610bf7919061576f565b9250505092915050565b60126020528060005260406000206000915090505481565b600080610c26848461212a565b90506000610c338261262d565b9450505050508082610c459190615850565b9250505092915050565b6000601260008473ffffffffffffffffffffffffffffffffffffffff1673ffffffffffffffffffffffffffffffffffffffff168152602001908152602001600020549050818111610ccc576040517f638b858200000000000000000000000000000000000000000000000000000000815260040160405180910390fd5b81601160008573ffffffffffffffffffffffffffffffffffffffff1673ffffffffffffffffffffffffffffffffffffffff16815260200190815260200160002060003373ffffffffffffffffffffffffffffffffffffffff1673ffffffffffffffffffffffffffffffffffffffff168152602001908152602001600020541015610d82576040517ff4d678b800000000000000000000000000000000000000000000000000000000815260040160405180910390fd5b6000610d998383610d939190615850565b84611780565b905082601160008673ffffffffffffffffffffffffffffffffffffffff1673ffffffffffffffffffffffffffffffffffffffff16815260200190815260200160002060003373ffffffffffffffffffffffffffffffffffffffff1673ffffffffffffffffffffffffffffffffffffffff1681526020019081526020016000206000828254610e279190615850565b925050819055508282610e3a9190615850565b601260008673ffffffffffffffffffffffffffffffffffffffff1673ffffffffffffffffffffffffffffffffffffffff16815260200190815260200160002081905550610e8b846000838686613687565b50505050565b600360009054906101000a900473ffffffffffffffffffffffffffffffffffffffff1681565b6005602052806000526040600020600091509050806000018054610eda9061594e565b80601f0160208091040260200160405190810160405280929190818152602001828054610f069061594e565b8015610f535780601f10610f2857610100808354040283529160200191610f53565b820191906000526020600020905b815481529060010190602001808311610f3657829003601f168201915b505050505090806001018054610f689061594e565b80601f0160208091040260200160405190810160405280929190818152602001828054610f949061594e565b8015610fe15780601f10610fb657610100808354040283529160200191610fe1565b820191906000526020600020905b815481529060010190602001808311610fc457829003601f168201915b5050505050908060020160009054906101000a900473ffffffffffffffffffffffffffffffffffffffff16905083565b6000601260008673ffffffffffffffffffffffffffffffffffffffff1673ffffffffffffffffffffffffffffffffffffffff1681526020019081526020016000205490506000811461108f576040517f1248f6d900000000000000000000000000000000000000000000000000000000815260040160405180910390fd5b61109985856133dd565b6110a4858484613c26565b5050505050565b600260009054906101000a900473ffffffffffffffffffffffffffffffffffffffff1681565b6000601260003373ffffffffffffffffffffffffffffffffffffffff1673ffffffffffffffffffffffffffffffffffffffff1681526020019081526020016000205490506001811115611150576040517f1248f6d900000000000000000000000000000000000000000000000000000000815260040160405180910390fd5b81600860003373ffffffffffffffffffffffffffffffffffffffff1673ffffffffffffffffffffffffffffffffffffffff16815260200190815260200160002060010154146112255781600860003373ffffffffffffffffffffffffffffffffffffffff1673ffffffffffffffffffffffffffffffffffffffff16815260200190815260200160002060010181905550813373ffffffffffffffffffffffffffffffffffffffff167f363eed7cdb0d83be2ee8f8cf5a381a307c10791386e57a7dd427cd0763017d3360405160405180910390a35b5050565b6000611274601260008573ffffffffffffffffffffffffffffffffffffffff1673ffffffffffffffffffffffffffffffffffffffff1681526020019081526020016000205483611780565b905092915050565b6000670de0b6b3a7640000826112929190615a1e565b146112c9576040517f0c3f64b000000000000000000000000000000000000000000000000000000000815260040160405180910390fd5b6000600560008473ffffffffffffffffffffffffffffffffffffffff1673ffffffffffffffffffffffffffffffffffffffff16815260200190815260200160002060020160009054906101000a900473ffffffffffffffffffffffffffffffffffffffff1690506000670de0b6b3a76400008361134691906157c5565b9050600073ffffffffffffffffffffffffffffffffffffffff168273ffffffffffffffffffffffffffffffffffffffff1614156113af576040517f5fbb48f200000000000000000000000000000000000000000000000000000000815260040160405180910390fd5b8173ffffffffffffffffffffffffffffffffffffffff166370a08231336040518263ffffffff1660e01b81526004016113e891906153e1565b60206040518083038186803b15801561140057600080fd5b505afa158015611414573d6000803e3d6000fd5b505050506040513d601f19601f820116820180604052508101906114389190615067565b831115611471576040517ff4d678b800000000000000000000000000000000000000000000000000000000815260040160405180910390fd5b601160008573ffffffffffffffffffffffffffffffffffffffff1673ffffffffffffffffffffffffffffffffffffffff16815260200190815260200160002060003073ffffffffffffffffffffffffffffffffffffffff1673ffffffffffffffffffffffffffffffffffffffff16815260200190815260200160002054811115611527576040517ff4d678b800000000000000000000000000000000000000000000000000000000815260040160405180910390fd5b8173ffffffffffffffffffffffffffffffffffffffff16639dc29fac33856040518363ffffffff1660e01b81526004016115629291906154a3565b600060405180830381600087803b15801561157c57600080fd5b505af1158015611590573d6000803e3d6000fd5b505050506115a084303384613d66565b50505050565b6011602052816000526040600020602052806000526040600020600091509150505481565b600073ffffffffffffffffffffffffffffffffffffffff16600560008473ffffffffffffffffffffffffffffffffffffffff1673ffffffffffffffffffffffffffffffffffffffff16815260200190815260200160002060020160009054906101000a900473ffffffffffffffffffffffffffffffffffffffff1673ffffffffffffffffffffffffffffffffffffffff161415611694576040517f5fbb48f200000000000000000000000000000000000000000000000000000000815260040160405180910390fd5b61169e828261127c565b6116bb82670de0b6b3a7640000836116b691906157c5565b610c4f565b5050565b3073ffffffffffffffffffffffffffffffffffffffff168273ffffffffffffffffffffffffffffffffffffffff161415611725576040517f10fa696100000000000000000000000000000000000000000000000000000000815260040160405180910390fd5b61173183338484613d66565b505050565b600a8060000160009054906101000a900473ffffffffffffffffffffffffffffffffffffffff16908060010154908060020154908060030154908060040154908060050154905086565b600080600084146117e25760066001808661179b9190615850565b60026117a791906157f6565b6117b1919061576f565b856001876117bf9190615850565b6117c991906157f6565b6117d391906157f6565b6117dd91906157c5565b6117e5565b60005b9050600080851480156117f85750600184145b61187557600660018560018861180e9190615850565b611818919061576f565b600261182491906157f6565b61182e919061576f565b858761183a919061576f565b866001896118489190615850565b611852919061576f565b61185c91906157f6565b61186691906157f6565b61187091906157c5565b611878565b60005b9050600082826118889190615850565b9050613e80670de0b6b3a7640000826118a191906157f6565b6118ab91906157c5565b935050505092915050565b803373ffffffffffffffffffffffffffffffffffffffff168173ffffffffffffffffffffffffffffffffffffffff161461191c576040517f39e7619900000000000000000000000000000000000000000000000000000000815260040160405180910390fd5b60405160200161192b906153cc565b60405160208183030381529060405280519060200120600560008473ffffffffffffffffffffffffffffffffffffffff1673ffffffffffffffffffffffffffffffffffffffff16815260200190815260200160002060000160405160200161199391906153a0565b604051602081830303815290604052805190602001201480611a3f57506040516020016119bf906153cc565b60405160208183030381529060405280519060200120600560008473ffffffffffffffffffffffffffffffffffffffff1673ffffffffffffffffffffffffffffffffffffffff168152602001908152602001600020600101604051602001611a2791906153a0565b60405160208183030381529060405280519060200120145b15611b5d576040518060400160405280600681526020017f4375727665730000000000000000000000000000000000000000000000000000815250600560008473ffffffffffffffffffffffffffffffffffffffff1673ffffffffffffffffffffffffffffffffffffffff1681526020019081526020016000206000019080519060200190611acf9291906149a5565b506040518060400160405280600681526020017f4355525645530000000000000000000000000000000000000000000000000000815250600560008473ffffffffffffffffffffffffffffffffffffffff1673ffffffffffffffffffffffffffffffffffffffff1681526020019081526020016000206001019080519060200190611b5b9291906149a5565b505b611cfc82600560008573ffffffffffffffffffffffffffffffffffffffff1673ffffffffffffffffffffffffffffffffffffffff1681526020019081526020016000206000018054611bae9061594e565b80601f0160208091040260200160405190810160405280929190818152602001828054611bda9061594e565b8015611c275780601f10611bfc57610100808354040283529160200191611c27565b820191906000526020600020905b815481529060010190602001808311611c0a57829003601f168201915b5050505050600560008673ffffffffffffffffffffffffffffffffffffffff1673ffffffffffffffffffffffffffffffffffffffff1681526020019081526020016000206001018054611c799061594e565b80601f0160208091040260200160405190810160405280929190818152602001828054611ca59061594e565b8015611cf25780601f10611cc757610100808354040283529160200191611cf2565b820191906000526020600020905b815481529060010190602001808311611cd557829003601f168201915b5050505050613c26565b5050565b60008054906101000a905050600a60050154600a60040154600a60030154600a6002015485611d2f919061576f565b611d39919061576f565b611d43919061576f565b1180611d7b5750600073ffffffffffffffffffffffffffffffffffffffff168173ffffffffffffffffffffffffffffffffffffffff16145b15611db2576040517fb7f141f600000000000000000000000000000000000000000000000000000000815260040160405180910390fd5b81600a6001018190555080600a60000160006101000a81548173ffffffffffffffffffffffffffffffffffffffff021916908373ffffffffffffffffffffffffffffffffffffffff1602179055505050565b3073ffffffffffffffffffffffffffffffffffffffff168173ffffffffffffffffffffffffffffffffffffffff161415611e6a576040517f10fa696100000000000000000000000000000000000000000000000000000000815260040160405180910390fd5b6000601360003373ffffffffffffffffffffffffffffffffffffffff1673ffffffffffffffffffffffffffffffffffffffff168152602001908152602001600020905060005b8180549050811015611fe157600060116000848481548110611ed557611ed4615adc565b5b9060005260206000200160009054906101000a900473ffffffffffffffffffffffffffffffffffffffff1673ffffffffffffffffffffffffffffffffffffffff1673ffffffffffffffffffffffffffffffffffffffff16815260200190815260200160002060003373ffffffffffffffffffffffffffffffffffffffff1673ffffffffffffffffffffffffffffffffffffffff1681526020019081526020016000205490506000811115611fcd57611fcc838381548110611f9957611f98615adc565b5b9060005260206000200160009054906101000a900473ffffffffffffffffffffffffffffffffffffffff16338684613d66565b5b508080611fd9906159b1565b915050611eb0565b505050565b60106020528060005260406000206000915054906101000a900473ffffffffffffffffffffffffffffffffffffffff1681565b60008054906101000a900473ffffffffffffffffffffffffffffffffffffffff1681565b600082604051602001612050919061531b565b6040516020818303038152906040528051906020012090506120b582600860008773ffffffffffffffffffffffffffffffffffffffff1673ffffffffffffffffffffffffffffffffffffffff16815260200190815260200160002060010154836140ec565b6120eb576040517f99baf05000000000000000000000000000000000000000000000000000000000815260040160405180910390fd5b50505050565b6040518060400160405280600681526020017f437572766573000000000000000000000000000000000000000000000000000081525081565b600061218082601260008673ffffffffffffffffffffffffffffffffffffffff1673ffffffffffffffffffffffffffffffffffffffff1681526020019081526020016000205461217a9190615850565b83611780565b905092915050565b843373ffffffffffffffffffffffffffffffffffffffff168173ffffffffffffffffffffffffffffffffffffffff16146121ee576040517f39e7619900000000000000000000000000000000000000000000000000000000815260040160405180910390fd5b428411612227576040517fa584fef300000000000000000000000000000000000000000000000000000000815260040160405180910390fd5b6000601260008873ffffffffffffffffffffffffffffffffffffffff1673ffffffffffffffffffffffffffffffffffffffff168152602001908152602001600020549050600081146122a5576040517f1248f6d900000000000000000000000000000000000000000000000000000000815260040160405180910390fd5b84600860008973ffffffffffffffffffffffffffffffffffffffff1673ffffffffffffffffffffffffffffffffffffffff1681526020019081526020016000206000018190555083600860008973ffffffffffffffffffffffffffffffffffffffff1673ffffffffffffffffffffffffffffffffffffffff16815260200190815260200160002060010181905550600083146123415782612363565b7fffffffffffffffffffffffffffffffffffffffffffffffffffffffffffffffff5b600860008973ffffffffffffffffffffffffffffffffffffffff1673ffffffffffffffffffffffffffffffffffffffff168152602001908152602001600020600201819055506123b387876133dd565b50505050505050565b60008054906101000a90505080600160008473ffffffffffffffffffffffffffffffffffffffff1673ffffffffffffffffffffffffffffffffffffffff16815260200190815260200160002060006101000a81548160ff0219169083151502179055505050565b6007818051602081018201805184825260208301602085012081835280955050505050506000915054906101000a900473ffffffffffffffffffffffffffffffffffffffff1681565b6040518060400160405280600681526020017f435552564553000000000000000000000000000000000000000000000000000081525081565b813373ffffffffffffffffffffffffffffffffffffffff168173ffffffffffffffffffffffffffffffffffffffff161461250b576040517f39e7619900000000000000000000000000000000000000000000000000000000815260040160405180910390fd5b81601060008573ffffffffffffffffffffffffffffffffffffffff1673ffffffffffffffffffffffffffffffffffffffff16815260200190815260200160002060006101000a81548173ffffffffffffffffffffffffffffffffffffffff021916908373ffffffffffffffffffffffffffffffffffffffff160217905550505050565b60086020528060005260406000206000915090508060000154908060010154908060020154905083565b6009602052816000526040600020602052806000526040600020600091509150505481565b60008054906101000a90505080600360006101000a81548173ffffffffffffffffffffffffffffffffffffffff021916908373ffffffffffffffffffffffffffffffffffffffff16021790555050565b6000806000806000670de0b6b3a7640000600a600101548761264f91906157f6565b61265991906157c5565b9450670de0b6b3a7640000600a600201548761267591906157f6565b61267f91906157c5565b9350670de0b6b3a7640000600a600301548761269b91906157f6565b6126a591906157c5565b9250670de0b6b3a7640000600a60040154876126c191906157f6565b6126cb91906157c5565b9150818385876126db919061576f565b6126e5919061576f565b6126ef919061576f565b905091939590929450565b823373ffffffffffffffffffffffffffffffffffffffff168173ffffffffffffffffffffffffffffffffffffffff1614612760576040517f39e7619900000000000000000000000000000000000000000000000000000000815260040160405180910390fd5b600073ffffffffffffffffffffffffffffffffffffffff16600560008673ffffffffffffffffffffffffffffffffffffffff1673ffffffffffffffffffffffffffffffffffffffff16815260200190815260200160002060020160009054906101000a900473ffffffffffffffffffffffffffffffffffffffff1673ffffffffffffffffffffffffffffffffffffffff1614612828576040517fa29d9c5000000000000000000000000000000000000000000000000000000000815260040160405180910390fd5b600073ffffffffffffffffffffffffffffffffffffffff166007836040516128509190615336565b908152602001604051809103902060009054906101000a900473ffffffffffffffffffffffffffffffffffffffff1673ffffffffffffffffffffffffffffffffffffffff16146128cc576040517fd53d66ee00000000000000000000000000000000000000000000000000000000815260040160405180910390fd5b82600560008673ffffffffffffffffffffffffffffffffffffffff1673ffffffffffffffffffffffffffffffffffffffff16815260200190815260200160002060000190805190602001906129229291906149a5565b5081600560008673ffffffffffffffffffffffffffffffffffffffff1673ffffffffffffffffffffffffffffffffffffffff16815260200190815260200160002060010190805190602001906129799291906149a5565b5050505050565b6000600860008573ffffffffffffffffffffffffffffffffffffffff1673ffffffffffffffffffffffffffffffffffffffff168152602001908152602001600020600001541480612a13575042600860008573ffffffffffffffffffffffffffffffffffffffff1673ffffffffffffffffffffffffffffffffffffffff1681526020019081526020016000206000015411155b15612a4a576040517f9c80ba0800000000000000000000000000000000000000000000000000000000815260040160405180910390fd5b81600960008573ffffffffffffffffffffffffffffffffffffffff1673ffffffffffffffffffffffffffffffffffffffff16815260200190815260200160002060003373ffffffffffffffffffffffffffffffffffffffff1673ffffffffffffffffffffffffffffffffffffffff1681526020019081526020016000206000828254612ad6919061576f565b925050819055506000600960008573ffffffffffffffffffffffffffffffffffffffff1673ffffffffffffffffffffffffffffffffffffffff16815260200190815260200160002060003373ffffffffffffffffffffffffffffffffffffffff1673ffffffffffffffffffffffffffffffffffffffff168152602001908152602001600020549050600860008573ffffffffffffffffffffffffffffffffffffffff1673ffffffffffffffffffffffffffffffffffffffff16815260200190815260200160002060020154811115612bda576040517ff22689ed00000000000000000000000000000000000000000000000000000000815260040160405180910390fd5b612be584338461203d565b612bef84846133dd565b50505050565b60008054906101000a905050806000806101000a81548173ffffffffffffffffffffffffffffffffffffffff021916908373ffffffffffffffffffffffffffffffffffffffff16021790555050565b601160008373ffffffffffffffffffffffffffffffffffffffff1673ffffffffffffffffffffffffffffffffffffffff16815260200190815260200160002060003373ffffffffffffffffffffffffffffffffffffffff1673ffffffffffffffffffffffffffffffffffffffff16815260200190815260200160002054811115612cfa576040517ff4d678b800000000000000000000000000000000000000000000000000000000815260040160405180910390fd5b6000600560008473ffffffffffffffffffffffffffffffffffffffff1673ffffffffffffffffffffffffffffffffffffffff16815260200190815260200160002060020160009054906101000a900473ffffffffffffffffffffffffffffffffffffffff169050600073ffffffffffffffffffffffffffffffffffffffff168173ffffffffffffffffffffffffffffffffffffffff1614156131dd57604051602001612da5906153cc565b60405160208183030381529060405280519060200120600560008573ffffffffffffffffffffffffffffffffffffffff1673ffffffffffffffffffffffffffffffffffffffff168152602001908152602001600020600001604051602001612e0d91906153a0565b604051602081830303815290604052805190602001201480612eb95750604051602001612e39906153cc565b60405160208183030381529060405280519060200120600560008573ffffffffffffffffffffffffffffffffffffffff1673ffffffffffffffffffffffffffffffffffffffff168152602001908152602001600020600101604051602001612ea191906153a0565b60405160208183030381529060405280519060200120145b15612fd7576040518060400160405280600681526020017f4375727665730000000000000000000000000000000000000000000000000000815250600560008573ffffffffffffffffffffffffffffffffffffffff1673ffffffffffffffffffffffffffffffffffffffff1681526020019081526020016000206000019080519060200190612f499291906149a5565b506040518060400160405280600681526020017f4355525645530000000000000000000000000000000000000000000000000000815250600560008573ffffffffffffffffffffffffffffffffffffffff1673ffffffffffffffffffffffffffffffffffffffff1681526020019081526020016000206001019080519060200190612fd59291906149a5565b505b61317683600560008673ffffffffffffffffffffffffffffffffffffffff1673ffffffffffffffffffffffffffffffffffffffff16815260200190815260200160002060000180546130289061594e565b80601f01602080910402602001604051908101604052809291908181526020018280546130549061594e565b80156130a15780601f10613076576101008083540402835291602001916130a1565b820191906000526020600020905b81548152906001019060200180831161308457829003601f168201915b5050505050600560008773ffffffffffffffffffffffffffffffffffffffff1673ffffffffffffffffffffffffffffffffffffffff16815260200190815260200160002060010180546130f39061594e565b80601f016020809104026020016040519081016040528092919081815260200182805461311f9061594e565b801561316c5780601f106131415761010080835404028352916020019161316c565b820191906000526020600020905b81548152906001019060200180831161314f57829003601f168201915b5050505050614103565b50600560008473ffffffffffffffffffffffffffffffffffffffff1673ffffffffffffffffffffffffffffffffffffffff16815260200190815260200160002060020160009054906101000a900473ffffffffffffffffffffffffffffffffffffffff1690505b6131e983333085613d66565b8073ffffffffffffffffffffffffffffffffffffffff166340c10f1933670de0b6b3a76400008561321a91906157f6565b6040518363ffffffff1660e01b81526004016132379291906154a3565b600060405180830381600087803b15801561325157600080fd5b505af1158015613265573d6000803e3d6000fd5b50505050505050565b60008054906101000a90505080600260006101000a81548173ffffffffffffffffffffffffffffffffffffffff021916908373ffffffffffffffffffffffffffffffffffffffff16021790555050565b60011515600160003373ffffffffffffffffffffffffffffffffffffffff1673ffffffffffffffffffffffffffffffffffffffff16815260200190815260200160002060009054906101000a9050505080600a60040154600a60030154600a60020154600a60010154613331919061576f565b61333b919061576f565b613345919061576f565b111561337d576040517fb7f141f600000000000000000000000000000000000000000000000000000000815260040160405180910390fd5b80600a6005018190555050565b60066020528060005260406000206000915054906101000a900473ffffffffffffffffffffffffffffffffffffffff1681565b60016020528060005260406000206000915054906101000a900460ff1681565b6000601260008473ffffffffffffffffffffffffffffffffffffffff1673ffffffffffffffffffffffffffffffffffffffff168152602001908152602001600020549050600081118061345b57503373ffffffffffffffffffffffffffffffffffffffff168373ffffffffffffffffffffffffffffffffffffffff16145b613491576040517f39e7619900000000000000000000000000000000000000000000000000000000815260040160405180910390fd5b600061349d8284611780565b905060006134aa8261262d565b94505050505080826134bc919061576f565b3410156134f5576040517fcd1c886700000000000000000000000000000000000000000000000000000000815260040160405180910390fd5b83601160008773ffffffffffffffffffffffffffffffffffffffff1673ffffffffffffffffffffffffffffffffffffffff16815260200190815260200160002060003373ffffffffffffffffffffffffffffffffffffffff1673ffffffffffffffffffffffffffffffffffffffff1681526020019081526020016000206000828254613581919061576f565b925050819055508383613594919061576f565b601260008773ffffffffffffffffffffffffffffffffffffffff1673ffffffffffffffffffffffffffffffffffffffff168152602001908152602001600020819055506135e5856001848787613687565b600084601160008873ffffffffffffffffffffffffffffffffffffffff1673ffffffffffffffffffffffffffffffffffffffff16815260200190815260200160002060003373ffffffffffffffffffffffffffffffffffffffff1673ffffffffffffffffffffffffffffffffffffffff1681526020019081526020016000205461366f9190615850565b14156136805761367f338661459c565b5b5050505050565b6000806000806136968761262d565b50935093509350935060008073ffffffffffffffffffffffffffffffffffffffff16601060008c73ffffffffffffffffffffffffffffffffffffffff1673ffffffffffffffffffffffffffffffffffffffff16815260200190815260200160002060009054906101000a900473ffffffffffffffffffffffffffffffffffffffff1673ffffffffffffffffffffffffffffffffffffffff161415905060008961373f5733613766565b600a60000160009054906101000a900473ffffffffffffffffffffffffffffffffffffffff165b905060008261378057848761377b919061576f565b613782565b865b905060008486888a8e6137959190615850565b61379f9190615850565b6137a99190615850565b6137b39190615850565b905060008373ffffffffffffffffffffffffffffffffffffffff168d6137d957826137db565b835b6040516137e7906153b7565b60006040518083038185875af1925050503d8060008114613824576040519150601f19603f3d011682016040523d82523d6000602084013e613829565b606091505b5050905080613864576040517fd373901400000000000000000000000000000000000000000000000000000000815260040160405180910390fd5b5050505060008a73ffffffffffffffffffffffffffffffffffffffff168560405161388e906153b7565b60006040518083038185875af1925050503d80600081146138cb576040519150601f19603f3d011682016040523d82523d6000602084013e6138d0565b606091505b505090508061390b576040517fd373901400000000000000000000000000000000000000000000000000000000815260040160405180910390fd5b5060008161392a576001604051806020016040528060008152506139f1565b601060008c73ffffffffffffffffffffffffffffffffffffffff1673ffffffffffffffffffffffffffffffffffffffff16815260200190815260200160002060009054906101000a900473ffffffffffffffffffffffffffffffffffffffff1673ffffffffffffffffffffffffffffffffffffffff16846040516139ad906153b7565b60006040518083038185875af1925050503d80600081146139ea576040519150601f19603f3d011682016040523d82523d6000602084013e6139ef565b606091505b505b50905080613a2b576040517fd373901400000000000000000000000000000000000000000000000000000000815260040160405180910390fd5b506000600a60040154118015613a905750600073ffffffffffffffffffffffffffffffffffffffff16600360009054906101000a900473ffffffffffffffffffffffffffffffffffffffff1673ffffffffffffffffffffffffffffffffffffffff1614155b15613bb357600360009054906101000a900473ffffffffffffffffffffffffffffffffffffffff1673ffffffffffffffffffffffffffffffffffffffff16631e22e0738b336040518363ffffffff1660e01b8152600401613af29291906153fc565b600060405180830381600087803b158015613b0c57600080fd5b505af1158015613b20573d6000803e3d6000fd5b50505050600360009054906101000a900473ffffffffffffffffffffffffffffffffffffffff1673ffffffffffffffffffffffffffffffffffffffff166364e084bf838c6040518363ffffffff1660e01b8152600401613b8091906153e1565b6000604051808303818588803b158015613b9957600080fd5b505af1158015613bad573d6000803e3d6000fd5b50505050505b507f2c76e7a47fd53e2854856ac3f0a5f3ee40d15cfaa82266357ea9779c486ab9c3338a8a898b89898f613bf2578d8d613bed9190615850565b613bff565b8d8d613bfe919061576f565b5b604051613c13989796959493929190615425565b60405180910390a1505050505050505050565b823373ffffffffffffffffffffffffffffffffffffffff168173ffffffffffffffffffffffffffffffffffffffff1614613c8c576040517f39e7619900000000000000000000000000000000000000000000000000000000815260040160405180910390fd5b600073ffffffffffffffffffffffffffffffffffffffff16600560008673ffffffffffffffffffffffffffffffffffffffff1673ffffffffffffffffffffffffffffffffffffffff16815260200190815260200160002060020160009054906101000a900473ffffffffffffffffffffffffffffffffffffffff1673ffffffffffffffffffffffffffffffffffffffff1614613d54576040517fa29d9c5000000000000000000000000000000000000000000000000000000000815260040160405180910390fd5b613d5f848484614103565b5050505050565b601160008573ffffffffffffffffffffffffffffffffffffffff1673ffffffffffffffffffffffffffffffffffffffff16815260200190815260200160002060008473ffffffffffffffffffffffffffffffffffffffff1673ffffffffffffffffffffffffffffffffffffffff16815260200190815260200160002054811115613e1c576040517ff4d678b800000000000000000000000000000000000000000000000000000000815260040160405180910390fd5b8173ffffffffffffffffffffffffffffffffffffffff168373ffffffffffffffffffffffffffffffffffffffff1614613e5a57613e59828561459c565b5b80601160008673ffffffffffffffffffffffffffffffffffffffff1673ffffffffffffffffffffffffffffffffffffffff16815260200190815260200160002060008573ffffffffffffffffffffffffffffffffffffffff1673ffffffffffffffffffffffffffffffffffffffff16815260200190815260200160002054613ee29190615850565b601160008673ffffffffffffffffffffffffffffffffffffffff1673ffffffffffffffffffffffffffffffffffffffff16815260200190815260200160002060008573ffffffffffffffffffffffffffffffffffffffff1673ffffffffffffffffffffffffffffffffffffffff1681526020019081526020016000208190555080601160008673ffffffffffffffffffffffffffffffffffffffff1673ffffffffffffffffffffffffffffffffffffffff16815260200190815260200160002060008473ffffffffffffffffffffffffffffffffffffffff1673ffffffffffffffffffffffffffffffffffffffff16815260200190815260200160002054613fea919061576f565b601160008673ffffffffffffffffffffffffffffffffffffffff1673ffffffffffffffffffffffffffffffffffffffff16815260200190815260200160002060008473ffffffffffffffffffffffffffffffffffffffff1673ffffffffffffffffffffffffffffffffffffffff168152602001908152602001600020819055508173ffffffffffffffffffffffffffffffffffffffff168373ffffffffffffffffffffffffffffffffffffffff168573ffffffffffffffffffffffffffffffffffffffff167fd1398bee19313d6bf672ccb116e51f4a1a947e91c757907f51fbb5b5e56c698f846040516140de9190615601565b60405180910390a450505050565b6000826140f985846146e2565b1490509392505050565b60006040518060400160405280600681526020017f435552564553000000000000000000000000000000000000000000000000000081525080519060200120828051906020012014156141c757600160046000828254614163919061576f565b9250508190555082614176600454614738565b604051602001614187929190615371565b6040516020818303038152906040529250816141a4600454614738565b6040516020016141b592919061534d565b60405160208183030381529060405291505b600073ffffffffffffffffffffffffffffffffffffffff166007836040516141ef9190615336565b908152602001604051809103902060009054906101000a900473ffffffffffffffffffffffffffffffffffffffff1673ffffffffffffffffffffffffffffffffffffffff161461426b576040517fd53d66ee00000000000000000000000000000000000000000000000000000000815260040160405180910390fd5b6000600260009054906101000a900473ffffffffffffffffffffffffffffffffffffffff1673ffffffffffffffffffffffffffffffffffffffff16636a032cd48585306040518463ffffffff1660e01b81526004016142cc939291906155bc565b602060405180830381600087803b1580156142e657600080fd5b505af11580156142fa573d6000803e3d6000fd5b505050506040513d601f19601f8201168201806040525081019061431e9190614c01565b905080600560008773ffffffffffffffffffffffffffffffffffffffff1673ffffffffffffffffffffffffffffffffffffffff16815260200190815260200160002060020160006101000a81548173ffffffffffffffffffffffffffffffffffffffff021916908373ffffffffffffffffffffffffffffffffffffffff16021790555083600560008773ffffffffffffffffffffffffffffffffffffffff1673ffffffffffffffffffffffffffffffffffffffff16815260200190815260200160002060000190805190602001906143f79291906149a5565b5082600560008773ffffffffffffffffffffffffffffffffffffffff1673ffffffffffffffffffffffffffffffffffffffff168152602001908152602001600020600101908051906020019061444e9291906149a5565b5084600660008373ffffffffffffffffffffffffffffffffffffffff1673ffffffffffffffffffffffffffffffffffffffff16815260200190815260200160002060006101000a81548173ffffffffffffffffffffffffffffffffffffffff021916908373ffffffffffffffffffffffffffffffffffffffff160217905550846007846040516144de9190615336565b908152602001604051809103902060006101000a81548173ffffffffffffffffffffffffffffffffffffffff021916908373ffffffffffffffffffffffffffffffffffffffff1602179055508073ffffffffffffffffffffffffffffffffffffffff168573ffffffffffffffffffffffffffffffffffffffff167f801b50b59a9c797b08c62fe4c8bee1aff31ff3246d488e359cedfc8e75ffd05f8686604051614589929190615585565b60405180910390a3809150509392505050565b6000601360008473ffffffffffffffffffffffffffffffffffffffff1673ffffffffffffffffffffffffffffffffffffffff168152602001908152602001600020905060005b8180549050811015614679578273ffffffffffffffffffffffffffffffffffffffff1682828154811061461857614617615adc565b5b9060005260206000200160009054906101000a900473ffffffffffffffffffffffffffffffffffffffff1673ffffffffffffffffffffffffffffffffffffffff1614156146665750506146de565b8080614671906159b1565b9150506145e2565b5080829080600181540180825580915050600190039060005260206000200160009091909190916101000a81548173ffffffffffffffffffffffffffffffffffffffff021916908373ffffffffffffffffffffffffffffffffffffffff160217905550505b5050565b60008082905060005b845181101561472d576147188286838151811061470b5761470a615adc565b5b6020026020010151614810565b91508080614725906159b1565b9150506146eb565b508091505092915050565b6060600060016147478461483b565b01905060008167ffffffffffffffff81111561476657614765615b0b565b5b6040519080825280601f01601f1916602001820160405280156147985781602001600182028036833780820191505090505b509050600082602001820190505b600115614805578080600190039150507f3031323334353637383961626364656600000000000000000000000000000000600a86061a8153600a85816147ef576147ee615a7e565b5b049450600085141561480057614805565b6147a6565b819350505050919050565b600081831061482857614823828461498e565b614833565b614832838361498e565b5b905092915050565b600080600090507a184f03e93ff9f4daa797ed6e38ed64bf6a1f0100000000000000008310614899577a184f03e93ff9f4daa797ed6e38ed64bf6a1f010000000000000000838161488f5761488e615a7e565b5b0492506040810190505b6d04ee2d6d415b85acef810000000083106148d6576d04ee2d6d415b85acef810000000083816148cc576148cb615a7e565b5b0492506020810190505b662386f26fc10000831061490557662386f26fc1000083816148fb576148fa615a7e565b5b0492506010810190505b6305f5e100831061492e576305f5e100838161492457614923615a7e565b5b0492506008810190505b612710831061495357612710838161494957614948615a7e565b5b0492506004810190505b60648310614976576064838161496c5761496b615a7e565b5b0492506002810190505b600a8310614985576001810190505b80915050919050565b600082600052816020526040600020905092915050565b8280546149b19061594e565b90600052602060002090601f0160209004810192826149d35760008555614a1a565b82601f106149ec57805160ff1916838001178555614a1a565b82800160010185558215614a1a579182015b82811115614a195782518255916020019190600101906149fe565b5b509050614a279190614a2b565b5090565b5b80821115614a44576000816000905550600101614a2c565b5090565b6000614a5b614a56846156cb565b6156a6565b90508083825260208201905082856020860282011115614a7e57614a7d615b3f565b5b60005b85811015614aae5781614a948882614b67565b845260208401935060208301925050600181019050614a81565b5050509392505050565b6000614acb614ac6846156f7565b6156a6565b905082815260208101848484011115614ae757614ae6615b44565b5b614af284828561590c565b509392505050565b600081359050614b0981615b9d565b92915050565b600081519050614b1e81615b9d565b92915050565b600082601f830112614b3957614b38615b3a565b5b8135614b49848260208601614a48565b91505092915050565b600081359050614b6181615bb4565b92915050565b600081359050614b7681615bcb565b92915050565b600082601f830112614b9157614b90615b3a565b5b8135614ba1848260208601614ab8565b91505092915050565b600081359050614bb981615be2565b92915050565b600081519050614bce81615be2565b92915050565b600060208284031215614bea57614be9615b4e565b5b6000614bf884828501614afa565b91505092915050565b600060208284031215614c1757614c16615b4e565b5b6000614c2584828501614b0f565b91505092915050565b60008060408385031215614c4557614c44615b4e565b5b6000614c5385828601614afa565b9250506020614c6485828601614afa565b9150509250929050565b600080600060608486031215614c8757614c86615b4e565b5b6000614c9586828701614afa565b9350506020614ca686828701614afa565b925050604084013567ffffffffffffffff811115614cc757614cc6615b49565b5b614cd386828701614b24565b9150509250925092565b600080600060608486031215614cf657614cf5615b4e565b5b6000614d0486828701614afa565b9350506020614d1586828701614afa565b9250506040614d2686828701614baa565b9150509250925092565b60008060408385031215614d4757614d46615b4e565b5b6000614d5585828601614afa565b9250506020614d6685828601614b52565b9150509250929050565b600080600060608486031215614d8957614d88615b4e565b5b6000614d9786828701614afa565b935050602084013567ffffffffffffffff811115614db857614db7615b49565b5b614dc486828701614b7c565b925050604084013567ffffffffffffffff811115614de557614de4615b49565b5b614df186828701614b7c565b9150509250925092565b60008060408385031215614e1257614e11615b4e565b5b6000614e2085828601614afa565b9250506020614e3185828601614baa565b9150509250929050565b600080600060608486031215614e5457614e53615b4e565b5b6000614e6286828701614afa565b9350506020614e7386828701614baa565b925050604084013567ffffffffffffffff811115614e9457614e93615b49565b5b614ea086828701614b24565b9150509250925092565b60008060008060808587031215614ec457614ec3615b4e565b5b6000614ed287828801614afa565b9450506020614ee387828801614baa565b935050604085013567ffffffffffffffff811115614f0457614f03615b49565b5b614f1087828801614b7c565b925050606085013567ffffffffffffffff811115614f3157614f30615b49565b5b614f3d87828801614b7c565b91505092959194509250565b600080600080600060a08688031215614f6557614f64615b4e565b5b6000614f7388828901614afa565b9550506020614f8488828901614baa565b9450506040614f9588828901614baa565b9350506060614fa688828901614b67565b9250506080614fb788828901614baa565b9150509295509295909350565b600060208284031215614fda57614fd9615b4e565b5b6000614fe884828501614b67565b91505092915050565b60006020828403121561500757615006615b4e565b5b600082013567ffffffffffffffff81111561502557615024615b49565b5b61503184828501614b7c565b91505092915050565b6000602082840312156150505761504f615b4e565b5b600061505e84828501614baa565b91505092915050565b60006020828403121561507d5761507c615b4e565b5b600061508b84828501614bbf565b91505092915050565b600080604083850312156150ab576150aa615b4e565b5b60006150b985828601614baa565b92505060206150ca85828601614afa565b9150509250929050565b600080604083850312156150eb576150ea615b4e565b5b60006150f985828601614baa565b925050602061510a85828601614baa565b9150509250929050565b60008060006060848603121561512d5761512c615b4e565b5b600061513b86828701614baa565b935050602061514c86828701614baa565b925050604061515d86828701614baa565b9150509250925092565b61517081615884565b82525050565b61518761518282615884565b6159fa565b82525050565b61519681615896565b82525050565b6151a5816158a2565b82525050565b6151b4816158d6565b82525050565b60006151c58261573d565b6151cf8185615753565b93506151df81856020860161591b565b6151e881615b53565b840191505092915050565b60006151fe8261573d565b6152088185615764565b935061521881856020860161591b565b80840191505092915050565b600081546152318161594e565b61523b8186615764565b9450600182166000811461525657600181146152675761529a565b60ff1983168652818601935061529a565b61527085615728565b60005b8381101561529257815481890152600182019150602081019050615273565b838801955050505b50505092915050565b60006152b0600183615764565b91506152bb82615b71565b600182019050919050565b60006152d3600083615748565b91506152de82615b9a565b600082019050919050565b60006152f6600083615764565b915061530182615b9a565b600082019050919050565b615315816158cc565b82525050565b60006153278284615176565b60148201915081905092915050565b600061534282846151f3565b915081905092915050565b600061535982856151f3565b915061536582846151f3565b91508190509392505050565b600061537d82856151f3565b9150615388826152a3565b915061539482846151f3565b91508190509392505050565b60006153ac8284615224565b915081905092915050565b60006153c2826152c6565b9150819050919050565b60006153d7826152e9565b9150819050919050565b60006020820190506153f66000830184615167565b92915050565b60006040820190506154116000830185615167565b61541e6020830184615167565b9392505050565b60006101008201905061543b600083018b615167565b615448602083018a615167565b615455604083018961518d565b615462606083018861530c565b61546f608083018761530c565b61547c60a083018661530c565b61548960c083018561530c565b61549660e083018461530c565b9998505050505050505050565b60006040820190506154b86000830185615167565b6154c5602083018461530c565b9392505050565b600060c0820190506154e16000830189615167565b6154ee602083018861530c565b6154fb604083018761530c565b615508606083018661530c565b615515608083018561530c565b61552260a083018461530c565b979650505050505050565b6000602082019050615542600083018461518d565b92915050565b600060208201905061555d60008301846151ab565b92915050565b6000602082019050818103600083015261557d81846151ba565b905092915050565b6000604082019050818103600083015261559f81856151ba565b905081810360208301526155b381846151ba565b90509392505050565b600060608201905081810360008301526155d681866151ba565b905081810360208301526155ea81856151ba565b90506155f96040830184615167565b949350505050565b6000602082019050615616600083018461530c565b92915050565b6000606082019050615631600083018661530c565b61563e602083018561519c565b61564b604083018461530c565b949350505050565b600060a082019050615668600083018861530c565b615675602083018761530c565b615682604083018661530c565b61568f606083018561530c565b61569c608083018461530c565b9695505050505050565b60006156b06156c1565b90506156bc8282615980565b919050565b6000604051905090565b600067ffffffffffffffff8211156156e6576156e5615b0b565b5b602082029050602081019050919050565b600067ffffffffffffffff82111561571257615711615b0b565b5b61571b82615b53565b9050602081019050919050565b60008190508160005260206000209050919050565b600081519050919050565b600081905092915050565b600082825260208201905092915050565b600081905092915050565b600061577a826158cc565b9150615785836158cc565b9250827fffffffffffffffffffffffffffffffffffffffffffffffffffffffffffffffff038211156157ba576157b9615a4f565b5b828201905092915050565b60006157d0826158cc565b91506157db836158cc565b9250826157eb576157ea615a7e565b5b828204905092915050565b6000615801826158cc565b915061580c836158cc565b9250817fffffffffffffffffffffffffffffffffffffffffffffffffffffffffffffffff048311821515161561584557615844615a4f565b5b828202905092915050565b600061585b826158cc565b9150615866836158cc565b92508282101561587957615878615a4f565b5b828203905092915050565b600061588f826158ac565b9050919050565b60008115159050919050565b6000819050919050565b600073ffffffffffffffffffffffffffffffffffffffff82169050919050565b6000819050919050565b60006158e1826158e8565b9050919050565b60006158f3826158fa565b9050919050565b6000615905826158ac565b9050919050565b82818337600083830152505050565b60005b8381101561593957808201518184015260208101905061591e565b83811115615948576000848401525b50505050565b6000600282049050600182168061596657607f821691505b6020821081141561597a57615979615aad565b5b50919050565b61598982615b53565b810181811067ffffffffffffffff821117156159a8576159a7615b0b565b5b80604052505050565b60006159bc826158cc565b91507fffffffffffffffffffffffffffffffffffffffffffffffffffffffffffffffff8214156159ef576159ee615a4f565b5b600182019050919050565b6000615a0582615a0c565b9050919050565b6000615a1782615b64565b9050919050565b6000615a29826158cc565b9150615a34836158cc565b925082615a4457615a43615a7e565b5b828206905092915050565b7f4e487b7100000000000000000000000000000000000000000000000000000000600052601160045260246000fd5b7f4e487b7100000000000000000000000000000000000000000000000000000000600052601260045260246000fd5b7f4e487b7100000000000000000000000000000000000000000000000000000000600052602260045260246000fd5b7f4e487b7100000000000000000000000000000000000000000000000000000000600052603260045260246000fd5b7f4e487b7100000000000000000000000000000000000000000000000000000000600052604160045260246000fd5b600080fd5b600080fd5b600080fd5b600080fd5b600080fd5b6000601f19601f8301169050919050565b60008160601b9050919050565b7f2000000000000000000000000000000000000000000000000000000000000000600082015250565b50565b615ba681615884565b8114615bb157600080fd5b50565b615bbd81615896565b8114615bc857600080fd5b50565b615bd4816158a2565b8114615bdf57600080fd5b50565b615beb816158cc565b8114615bf657600080fd5b5056fea26469706673582212201922ba5b7df914875cd988952fb74d8bc2427a73ade6ba8ddc1974b1196dd7b664736f6c63430008070033",
  "linkReferences": {},
  "deployedLinkReferences": {}
}