{
  "_format": "hh-sol-artifact-1",
  "contractName": "CurvesERC20Factory",
  "sourceName": "contracts/CurvesERC20Factory.sol",
  "abi": [
    {
      "inputs": [
        {
          "internalType": "string",
          "name": "name",
          "type": "string"
        },
        {
          "internalType": "string",
          "name": "symbol",
          "type": "string"
        },
        {
          "internalType": "address",
          "name": "owner",
          "type": "address"
        }
      ],
      "name": "deploy",
      "outputs": [
        {
          "internalType": "address",
          "name": "",
          "type": "address"
        }
      ],
      "stateMutability": "nonpayable",
      "type": "function"
    }
  ],
  "bytecode": "0x608060405234801561001057600080fd5b5061275f806100206000396000f3fe60806040523480156200001157600080fd5b50600436106200002e5760003560e01c80636a032cd41462000033575b600080fd5b6200005160048036038101906200004b919062000159565b62000069565b60405162000060919062000245565b60405180910390f35b6000808484846040516200007d90620000b6565b6200008b9392919062000262565b604051809103906000f080158015620000a8573d6000803e3d6000fd5b509050809150509392505050565b6122e4806200044683390190565b6000620000db620000d584620002d6565b620002ad565b905082815260208101848484011115620000fa57620000f96200040b565b5b620001078482856200035c565b509392505050565b60008135905062000120816200042b565b92915050565b600082601f8301126200013e576200013d62000406565b5b813562000150848260208601620000c4565b91505092915050565b60008060006060848603121562000175576200017462000415565b5b600084013567ffffffffffffffff81111562000196576200019562000410565b5b620001a48682870162000126565b935050602084013567ffffffffffffffff811115620001c857620001c762000410565b5b620001d68682870162000126565b9250506040620001e9868287016200010f565b9150509250925092565b620001fe8162000328565b82525050565b600062000211826200030c565b6200021d818562000317565b93506200022f8185602086016200036b565b6200023a816200041a565b840191505092915050565b60006020820190506200025c6000830184620001f3565b92915050565b600060608201905081810360008301526200027e818662000204565b9050818103602083015262000294818562000204565b9050620002a56040830184620001f3565b949350505050565b6000620002b9620002cc565b9050620002c78282620003a1565b919050565b6000604051905090565b600067ffffffffffffffff821115620002f457620002f3620003d7565b5b620002ff826200041a565b9050602081019050919050565b600081519050919050565b600082825260208201905092915050565b600062000335826200033c565b9050919050565b600073ffffffffffffffffffffffffffffffffffffffff82169050919050565b82818337600083830152505050565b60005b838110156200038b5780820151818401526020810190506200036e565b838111156200039b576000848401525b50505050565b620003ac826200041a565b810181811067ffffffffffffffff82111715620003ce57620003cd620003d7565b5b80604052505050565b7f4e487b7100000000000000000000000000000000000000000000000000000000600052604160045260246000fd5b600080fd5b600080fd5b600080fd5b600080fd5b6000601f19601f8301169050919050565b620004368162000328565b81146200044257600080fd5b5056fe60806040523480156200001157600080fd5b50604051620022e4380380620022e483398181016040528101906200003791906200040c565b8282816003908051906020019062000051929190620002c7565b5080600490805190602001906200006a929190620002c7565b5050506200008d62000081620000a760201b60201c565b620000af60201b60201c565b6200009e816200017560201b60201c565b50505062000793565b600033905090565b6000600560009054906101000a900473ffffffffffffffffffffffffffffffffffffffff16905081600560006101000a81548173ffffffffffffffffffffffffffffffffffffffff021916908373ffffffffffffffffffffffffffffffffffffffff1602179055508173ffffffffffffffffffffffffffffffffffffffff168173ffffffffffffffffffffffffffffffffffffffff167f8be0079c531659141344cd1fd0a4f28419497f9722a3daafe3b4186f6b6457e060405160405180910390a35050565b620001856200020c60201b60201c565b600073ffffffffffffffffffffffffffffffffffffffff168173ffffffffffffffffffffffffffffffffffffffff161415620001f8576040517f08c379a0000000000000000000000000000000000000000000000000000000008152600401620001ef90620004f4565b60405180910390fd5b6200020981620000af60201b60201c565b50565b6200021c620000a760201b60201c565b73ffffffffffffffffffffffffffffffffffffffff16620002426200029d60201b60201c565b73ffffffffffffffffffffffffffffffffffffffff16146200029b576040517f08c379a0000000000000000000000000000000000000000000000000000000008152600401620002929062000516565b60405180910390fd5b565b6000600560009054906101000a900473ffffffffffffffffffffffffffffffffffffffff16905090565b828054620002d59062000612565b90600052602060002090601f016020900481019282620002f9576000855562000345565b82601f106200031457805160ff191683800117855562000345565b8280016001018555821562000345579182015b828111156200034457825182559160200191906001019062000327565b5b50905062000354919062000358565b5090565b5b808211156200037357600081600090555060010162000359565b5090565b60006200038e620003888462000561565b62000538565b905082815260208101848484011115620003ad57620003ac620006e1565b5b620003ba848285620005dc565b509392505050565b600081519050620003d38162000779565b92915050565b600082601f830112620003f157620003f0620006dc565b5b81516200040384826020860162000377565b91505092915050565b600080600060608486031215620004285762000427620006eb565b5b600084015167ffffffffffffffff811115620004495762000448620006e6565b5b6200045786828701620003d9565b935050602084015167ffffffffffffffff8111156200047b576200047a620006e6565b5b6200048986828701620003d9565b92505060406200049c86828701620003c2565b9150509250925092565b6000620004b560268362000597565b9150620004c28262000701565b604082019050919050565b6000620004dc60208362000597565b9150620004e98262000750565b602082019050919050565b600060208201905081810360008301526200050f81620004a6565b9050919050565b600060208201905081810360008301526200053181620004cd565b9050919050565b60006200054462000557565b905062000552828262000648565b919050565b6000604051905090565b600067ffffffffffffffff8211156200057f576200057e620006ad565b5b6200058a82620006f0565b9050602081019050919050565b600082825260208201905092915050565b6000620005b582620005bc565b9050919050565b600073ffffffffffffffffffffffffffffffffffffffff82169050919050565b60005b83811015620005fc578082015181840152602081019050620005df565b838111156200060c576000848401525b50505050565b600060028204905060018216806200062b57607f821691505b602082108114156200064257620006416200067e565b5b50919050565b6200065382620006f0565b810181811067ffffffffffffffff82111715620006755762000674620006ad565b5b80604052505050565b7f4e487b7100000000000000000000000000000000000000000000000000000000600052602260045260246000fd5b7f4e487b7100000000000000000000000000000000000000000000000000000000600052604160045260246000fd5b600080fd5b600080fd5b600080fd5b600080fd5b6000601f19601f8301169050919050565b7f4f776e61626c653a206e6577206f776e657220697320746865207a65726f206160008201527f6464726573730000000000000000000000000000000000000000000000000000602082015250565b7f4f776e61626c653a2063616c6c6572206973206e6f7420746865206f776e6572600082015250565b6200078481620005a8565b81146200079057600080fd5b50565b611b4180620007a36000396000f3fe608060405234801561001057600080fd5b50600436106101005760003560e01c8063715018a611610097578063a457c2d711610066578063a457c2d71461029d578063a9059cbb146102cd578063dd62ed3e146102fd578063f2fde38b1461032d57610100565b8063715018a61461023b5780638da5cb5b1461024557806395d89b41146102635780639dc29fac1461028157610100565b8063313ce567116100d3578063313ce567146101a157806339509351146101bf57806340c10f19146101ef57806370a082311461020b57610100565b806306fdde0314610105578063095ea7b31461012357806318160ddd1461015357806323b872dd14610171575b600080fd5b61010d610349565b60405161011a9190611423565b60405180910390f35b61013d60048036038101906101389190611194565b6103db565b60405161014a9190611408565b60405180910390f35b61015b6103fe565b60405161016891906115c5565b60405180910390f35b61018b60048036038101906101869190611141565b610408565b6040516101989190611408565b60405180910390f35b6101a9610437565b6040516101b691906115e0565b60405180910390f35b6101d960048036038101906101d49190611194565b610440565b6040516101e69190611408565b60405180910390f35b61020960048036038101906102049190611194565b610477565b005b610225600480360381019061022091906110d4565b61048d565b60405161023291906115c5565b60405180910390f35b6102436104d5565b005b61024d6104e9565b60405161025a91906113ed565b60405180910390f35b61026b610513565b6040516102789190611423565b60405180910390f35b61029b60048036038101906102969190611194565b6105a5565b005b6102b760048036038101906102b29190611194565b6105bb565b6040516102c49190611408565b60405180910390f35b6102e760048036038101906102e29190611194565b610632565b6040516102f49190611408565b60405180910390f35b61031760048036038101906103129190611101565b610655565b60405161032491906115c5565b60405180910390f35b610347600480360381019061034291906110d4565b6106dc565b005b606060038054610358906116f5565b80601f0160208091040260200160405190810160405280929190818152602001828054610384906116f5565b80156103d15780601f106103a6576101008083540402835291602001916103d1565b820191906000526020600020905b8154815290600101906020018083116103b457829003601f168201915b5050505050905090565b6000806103e6610760565b90506103f3818585610768565b600191505092915050565b6000600254905090565b600080610413610760565b9050610420858285610933565b61042b8585856109bf565b60019150509392505050565b60006012905090565b60008061044b610760565b905061046c81858561045d8589610655565b6104679190611617565b610768565b600191505092915050565b61047f610c37565b6104898282610cb5565b5050565b60008060008373ffffffffffffffffffffffffffffffffffffffff1673ffffffffffffffffffffffffffffffffffffffff168152602001908152602001600020549050919050565b6104dd610c37565b6104e76000610e0c565b565b6000600560009054906101000a900473ffffffffffffffffffffffffffffffffffffffff16905090565b606060048054610522906116f5565b80601f016020809104026020016040519081016040528092919081815260200182805461054e906116f5565b801561059b5780601f106105705761010080835404028352916020019161059b565b820191906000526020600020905b81548152906001019060200180831161057e57829003601f168201915b5050505050905090565b6105ad610c37565b6105b78282610ed2565b5050565b6000806105c6610760565b905060006105d48286610655565b905083811015610619576040517f08c379a000000000000000000000000000000000000000000000000000000000815260040161061090611585565b60405180910390fd5b6106268286868403610768565b60019250505092915050565b60008061063d610760565b905061064a8185856109bf565b600191505092915050565b6000600160008473ffffffffffffffffffffffffffffffffffffffff1673ffffffffffffffffffffffffffffffffffffffff16815260200190815260200160002060008373ffffffffffffffffffffffffffffffffffffffff1673ffffffffffffffffffffffffffffffffffffffff16815260200190815260200160002054905092915050565b6106e4610c37565b600073ffffffffffffffffffffffffffffffffffffffff168173ffffffffffffffffffffffffffffffffffffffff161415610754576040517f08c379a000000000000000000000000000000000000000000000000000000000815260040161074b90611485565b60405180910390fd5b61075d81610e0c565b50565b600033905090565b600073ffffffffffffffffffffffffffffffffffffffff168373ffffffffffffffffffffffffffffffffffffffff1614156107d8576040517f08c379a00000000000000000000000000000000000000000000000000000000081526004016107cf90611565565b60405180910390fd5b600073ffffffffffffffffffffffffffffffffffffffff168273ffffffffffffffffffffffffffffffffffffffff161415610848576040517f08c379a000000000000000000000000000000000000000000000000000000000815260040161083f906114a5565b60405180910390fd5b80600160008573ffffffffffffffffffffffffffffffffffffffff1673ffffffffffffffffffffffffffffffffffffffff16815260200190815260200160002060008473ffffffffffffffffffffffffffffffffffffffff1673ffffffffffffffffffffffffffffffffffffffff168152602001908152602001600020819055508173ffffffffffffffffffffffffffffffffffffffff168373ffffffffffffffffffffffffffffffffffffffff167f8c5be1e5ebec7d5bd14f71427d1e84f3dd0314c0f7b2291e5b200ac8c7c3b9258360405161092691906115c5565b60405180910390a3505050565b600061093f8484610655565b90507fffffffffffffffffffffffffffffffffffffffffffffffffffffffffffffffff81146109b957818110156109ab576040517f08c379a00000000000000000000000000000000000000000000000000000000081526004016109a2906114c5565b60405180910390fd5b6109b88484848403610768565b5b50505050565b600073ffffffffffffffffffffffffffffffffffffffff168373ffffffffffffffffffffffffffffffffffffffff161415610a2f576040517f08c379a0000000000000000000000000000000000000000000000000000000008152600401610a2690611545565b60405180910390fd5b600073ffffffffffffffffffffffffffffffffffffffff168273ffffffffffffffffffffffffffffffffffffffff161415610a9f576040517f08c379a0000000000000000000000000000000000000000000000000000000008152600401610a9690611445565b60405180910390fd5b610aaa8383836110a0565b60008060008573ffffffffffffffffffffffffffffffffffffffff1673ffffffffffffffffffffffffffffffffffffffff16815260200190815260200160002054905081811015610b30576040517f08c379a0000000000000000000000000000000000000000000000000000000008152600401610b27906114e5565b60405180910390fd5b8181036000808673ffffffffffffffffffffffffffffffffffffffff1673ffffffffffffffffffffffffffffffffffffffff16815260200190815260200160002081905550816000808573ffffffffffffffffffffffffffffffffffffffff1673ffffffffffffffffffffffffffffffffffffffff168152602001908152602001600020600082825401925050819055508273ffffffffffffffffffffffffffffffffffffffff168473ffffffffffffffffffffffffffffffffffffffff167fddf252ad1be2c89b69c2b068fc378daa952ba7f163c4a11628f55a4df523b3ef84604051610c1e91906115c5565b60405180910390a3610c318484846110a5565b50505050565b610c3f610760565b73ffffffffffffffffffffffffffffffffffffffff16610c5d6104e9565b73ffffffffffffffffffffffffffffffffffffffff1614610cb3576040517f08c379a0000000000000000000000000000000000000000000000000000000008152600401610caa90611505565b60405180910390fd5b565b600073ffffffffffffffffffffffffffffffffffffffff168273ffffffffffffffffffffffffffffffffffffffff161415610d25576040517f08c379a0000000000000000000000000000000000000000000000000000000008152600401610d1c906115a5565b60405180910390fd5b610d31600083836110a0565b8060026000828254610d439190611617565b92505081905550806000808473ffffffffffffffffffffffffffffffffffffffff1673ffffffffffffffffffffffffffffffffffffffff168152602001908152602001600020600082825401925050819055508173ffffffffffffffffffffffffffffffffffffffff16600073ffffffffffffffffffffffffffffffffffffffff167fddf252ad1be2c89b69c2b068fc378daa952ba7f163c4a11628f55a4df523b3ef83604051610df491906115c5565b60405180910390a3610e08600083836110a5565b5050565b6000600560009054906101000a900473ffffffffffffffffffffffffffffffffffffffff16905081600560006101000a81548173ffffffffffffffffffffffffffffffffffffffff021916908373ffffffffffffffffffffffffffffffffffffffff1602179055508173ffffffffffffffffffffffffffffffffffffffff168173ffffffffffffffffffffffffffffffffffffffff167f8be0079c531659141344cd1fd0a4f28419497f9722a3daafe3b4186f6b6457e060405160405180910390a35050565b600073ffffffffffffffffffffffffffffffffffffffff168273ffffffffffffffffffffffffffffffffffffffff161415610f42576040517f08c379a0000000000000000000000000000000000000000000000000000000008152600401610f3990611525565b60405180910390fd5b610f4e826000836110a0565b60008060008473ffffffffffffffffffffffffffffffffffffffff1673ffffffffffffffffffffffffffffffffffffffff16815260200190815260200160002054905081811015610fd4576040517f08c379a0000000000000000000000000000000000000000000000000000000008152600401610fcb90611465565b60405180910390fd5b8181036000808573ffffffffffffffffffffffffffffffffffffffff1673ffffffffffffffffffffffffffffffffffffffff1681526020019081526020016000208190555081600260008282540392505081905550600073ffffffffffffffffffffffffffffffffffffffff168373ffffffffffffffffffffffffffffffffffffffff167fddf252ad1be2c89b69c2b068fc378daa952ba7f163c4a11628f55a4df523b3ef8460405161108791906115c5565b60405180910390a361109b836000846110a5565b505050565b505050565b505050565b6000813590506110b981611add565b92915050565b6000813590506110ce81611af4565b92915050565b6000602082840312156110ea576110e9611785565b5b60006110f8848285016110aa565b91505092915050565b6000806040838503121561111857611117611785565b5b6000611126858286016110aa565b9250506020611137858286016110aa565b9150509250929050565b60008060006060848603121561115a57611159611785565b5b6000611168868287016110aa565b9350506020611179868287016110aa565b925050604061118a868287016110bf565b9150509250925092565b600080604083850312156111ab576111aa611785565b5b60006111b9858286016110aa565b92505060206111ca858286016110bf565b9150509250929050565b6111dd8161166d565b82525050565b6111ec8161167f565b82525050565b60006111fd826115fb565b6112078185611606565b93506112178185602086016116c2565b6112208161178a565b840191505092915050565b6000611238602383611606565b91506112438261179b565b604082019050919050565b600061125b602283611606565b9150611266826117ea565b604082019050919050565b600061127e602683611606565b915061128982611839565b604082019050919050565b60006112a1602283611606565b91506112ac82611888565b604082019050919050565b60006112c4601d83611606565b91506112cf826118d7565b602082019050919050565b60006112e7602683611606565b91506112f282611900565b604082019050919050565b600061130a602083611606565b91506113158261194f565b602082019050919050565b600061132d602183611606565b915061133882611978565b604082019050919050565b6000611350602583611606565b915061135b826119c7565b604082019050919050565b6000611373602483611606565b915061137e82611a16565b604082019050919050565b6000611396602583611606565b91506113a182611a65565b604082019050919050565b60006113b9601f83611606565b91506113c482611ab4565b602082019050919050565b6113d8816116ab565b82525050565b6113e7816116b5565b82525050565b600060208201905061140260008301846111d4565b92915050565b600060208201905061141d60008301846111e3565b92915050565b6000602082019050818103600083015261143d81846111f2565b905092915050565b6000602082019050818103600083015261145e8161122b565b9050919050565b6000602082019050818103600083015261147e8161124e565b9050919050565b6000602082019050818103600083015261149e81611271565b9050919050565b600060208201905081810360008301526114be81611294565b9050919050565b600060208201905081810360008301526114de816112b7565b9050919050565b600060208201905081810360008301526114fe816112da565b9050919050565b6000602082019050818103600083015261151e816112fd565b9050919050565b6000602082019050818103600083015261153e81611320565b9050919050565b6000602082019050818103600083015261155e81611343565b9050919050565b6000602082019050818103600083015261157e81611366565b9050919050565b6000602082019050818103600083015261159e81611389565b9050919050565b600060208201905081810360008301526115be816113ac565b9050919050565b60006020820190506115da60008301846113cf565b92915050565b60006020820190506115f560008301846113de565b92915050565b600081519050919050565b600082825260208201905092915050565b6000611622826116ab565b915061162d836116ab565b9250827fffffffffffffffffffffffffffffffffffffffffffffffffffffffffffffffff0382111561166257611661611727565b5b828201905092915050565b60006116788261168b565b9050919050565b60008115159050919050565b600073ffffffffffffffffffffffffffffffffffffffff82169050919050565b6000819050919050565b600060ff82169050919050565b60005b838110156116e05780820151818401526020810190506116c5565b838111156116ef576000848401525b50505050565b6000600282049050600182168061170d57607f821691505b6020821081141561172157611720611756565b5b50919050565b7f4e487b7100000000000000000000000000000000000000000000000000000000600052601160045260246000fd5b7f4e487b7100000000000000000000000000000000000000000000000000000000600052602260045260246000fd5b600080fd5b6000601f19601f8301169050919050565b7f45524332303a207472616e7366657220746f20746865207a65726f206164647260008201527f6573730000000000000000000000000000000000000000000000000000000000602082015250565b7f45524332303a206275726e20616d6f756e7420657863656564732062616c616e60008201527f6365000000000000000000000000000000000000000000000000000000000000602082015250565b7f4f776e61626c653a206e6577206f776e657220697320746865207a65726f206160008201527f6464726573730000000000000000000000000000000000000000000000000000602082015250565b7f45524332303a20617070726f766520746f20746865207a65726f20616464726560008201527f7373000000000000000000000000000000000000000000000000000000000000602082015250565b7f45524332303a20696e73756666696369656e7420616c6c6f77616e6365000000600082015250565b7f45524332303a207472616e7366657220616d6f756e742065786365656473206260008201527f616c616e63650000000000000000000000000000000000000000000000000000602082015250565b7f4f776e61626c653a2063616c6c6572206973206e6f7420746865206f776e6572600082015250565b7f45524332303a206275726e2066726f6d20746865207a65726f2061646472657360008201527f7300000000000000000000000000000000000000000000000000000000000000602082015250565b7f45524332303a207472616e736665722066726f6d20746865207a65726f20616460008201527f6472657373000000000000000000000000000000000000000000000000000000602082015250565b7f45524332303a20617070726f76652066726f6d20746865207a65726f2061646460008201527f7265737300000000000000000000000000000000000000000000000000000000602082015250565b7f45524332303a2064656372656173656420616c6c6f77616e63652062656c6f7760008201527f207a65726f000000000000000000000000000000000000000000000000000000602082015250565b7f45524332303a206d696e7420746f20746865207a65726f206164647265737300600082015250565b611ae68161166d565b8114611af157600080fd5b50565b611afd816116ab565b8114611b0857600080fd5b5056fea2646970667358221220116755da3bc0533666863b7fd65ea82da3b19dacbe6f0a5449c7307668204c8764736f6c63430008070033a26469706673582212202973d2032613ed437541319a827f5b2a359cfd333e1972c59eb08f27019360ae64736f6c63430008070033",
  "linkReferences": {},
  "deployedLinkReferences": {}
}