{
  "_format": "hh-sol-artifact-1",
  "contractName": "FeeSplitter",
  "sourceName": "contracts/FeeSplitter.sol",
  "abi": [
    {
      "inputs": [],
      "stateMutability": "nonpayable",
      "type": "constructor"
    },
    {
      "inputs": [],
      "name": "NoFeesToClaim",
      "type": "error"
    },
    {
      "inputs": [],
      "name": "NoTokenHolders",
      "type": "error"
    },
    {
      "anonymous": false,
      "inputs": [
        {
          "indexed": true,
          "internalType": "address",
          "name": "token",
          "type": "address"
        },
        {
          "indexed": true,
          "internalType": "address",
          "name": "user",
          "type": "address"
        },
        {
          "indexed": false,
          "internalType": "uint256",
          "name": "amount",
          "type": "uint256"
        }
      ],
      "name": "FeesClaimed",
      "type": "event"
    },
    {
      "inputs": [
        {
          "internalType": "address",
          "name": "token",
          "type": "address"
        }
      ],
      "name": "addFees",
      "outputs": [],
      "stateMutability": "payable",
      "type": "function"
    },
    {
      "inputs": [
        {
          "internalType": "address",
          "name": "token",
          "type": "address"
        },
        {
          "internalType": "address",
          "name": "account",
          "type": "address"
        }
      ],
      "name": "balanceOf",
      "outputs": [
        {
          "internalType": "uint256",
          "name": "",
          "type": "uint256"
        }
      ],
      "stateMutability": "view",
      "type": "function"
    },
    {
      "inputs": [
        {
          "internalType": "address[]",
          "name": "tokenList",
          "type": "address[]"
        }
      ],
      "name": "batchClaiming",
      "outputs": [],
      "stateMutability": "nonpayable",
      "type": "function"
    },
    {
      "inputs": [
        {
          "internalType": "address",
          "name": "token",
          "type": "address"
        }
      ],
      "name": "claimFees",
      "outputs": [],
      "stateMutability": "nonpayable",
      "type": "function"
    },
    {
      "inputs": [],
      "name": "curves",
      "outputs": [
        {
          "internalType": "contract Curves",
          "name": "",
          "type": "address"
        }
      ],
      "stateMutability": "view",
      "type": "function"
    },
    {
      "inputs": [
        {
          "internalType": "address",
          "name": "token",
          "type": "address"
        },
        {
          "internalType": "address",
          "name": "account",
          "type": "address"
        }
      ],
      "name": "getClaimableFees",
      "outputs": [
        {
          "internalType": "uint256",
          "name": "",
          "type": "uint256"
        }
      ],
      "stateMutability": "view",
      "type": "function"
    },
    {
      "inputs": [
        {
          "internalType": "address",
          "name": "user",
          "type": "address"
        }
      ],
      "name": "getUserTokens",
      "outputs": [
        {
          "internalType": "address[]",
          "name": "",
          "type": "address[]"
        }
      ],
      "stateMutability": "view",
      "type": "function"
    },
    {
      "inputs": [
        {
          "internalType": "address",
          "name": "user",
          "type": "address"
        }
      ],
      "name": "getUserTokensAndClaimable",
      "outputs": [
        {
          "components": [
            {
              "internalType": "uint256",
              "name": "claimableFees",
              "type": "uint256"
            },
            {
              "internalType": "address",
              "name": "token",
              "type": "address"
            }
          ],
          "internalType": "struct FeeSplitter.UserClaimData[]",
          "name": "",
          "type": "tuple[]"
        }
      ],
      "stateMutability": "view",
      "type": "function"
    },
    {
      "inputs": [
        {
          "internalType": "address",
          "name": "",
          "type": "address"
        }
      ],
      "name": "managers",
      "outputs": [
        {
          "internalType": "bool",
          "name": "",
          "type": "bool"
        }
      ],
      "stateMutability": "view",
      "type": "function"
    },
    {
      "inputs": [
        {
          "internalType": "address",
          "name": "token",
          "type": "address"
        },
        {
          "internalType": "address",
          "name": "account",
          "type": "address"
        }
      ],
      "name": "onBalanceChange",
      "outputs": [],
      "stateMutability": "nonpayable",
      "type": "function"
    },
    {
      "inputs": [],
      "name": "owner",
      "outputs": [
        {
          "internalType": "address",
          "name": "",
          "type": "address"
        }
      ],
      "stateMutability": "view",
      "type": "function"
    },
    {
      "inputs": [
        {
          "internalType": "contract Curves",
          "name": "curves_",
          "type": "address"
        }
      ],
      "name": "setCurves",
      "outputs": [],
      "stateMutability": "nonpayable",
      "type": "function"
    },
    {
      "inputs": [
        {
          "internalType": "address",
          "name": "manager_",
          "type": "address"
        },
        {
          "internalType": "bool",
          "name": "value",
          "type": "bool"
        }
      ],
      "name": "setManager",
      "outputs": [],
      "stateMutability": "nonpayable",
      "type": "function"
    },
    {
      "inputs": [
        {
          "internalType": "address",
          "name": "token",
          "type": "address"
        }
      ],
      "name": "totalSupply",
      "outputs": [
        {
          "internalType": "uint256",
          "name": "",
          "type": "uint256"
        }
      ],
      "stateMutability": "view",
      "type": "function"
    },
    {
      "inputs": [
        {
          "internalType": "address",
          "name": "owner_",
          "type": "address"
        }
      ],
      "name": "transferOwnership",
      "outputs": [],
      "stateMutability": "nonpayable",
      "type": "function"
    },
    {
      "stateMutability": "payable",
      "type": "receive"
    }
  ],
  "bytecode": "0x608060405234801561001057600080fd5b50336000806101000a81548173ffffffffffffffffffffffffffffffffffffffff021916908373ffffffffffffffffffffffffffffffffffffffff16021790555060018060003373ffffffffffffffffffffffffffffffffffffffff1673ffffffffffffffffffffffffffffffffffffffff16815260200190815260200160002060006101000a81548160ff021916908315150217905550611a72806100b76000396000f3fe6080604052600436106100ec5760003560e01c80638da5cb5b1161008a578063f079f3ea11610059578063f079f3ea14610302578063f2fde38b1461032b578063f7888aec14610354578063fdff9b4d14610391576100f3565b80638da5cb5b14610234578063a5e90eee1461025f578063e4dc2aa414610288578063ebf34712146102c5576100f3565b806320bf3447116100c657806320bf344714610173578063519dc8d2146101b05780635accf175146101ed57806364e084bf14610218576100f3565b806309fc572f146100f857806315a0ea6a146101215780631e22e0731461014a576100f3565b366100f357005b600080fd5b34801561010457600080fd5b5061011f600480360381019061011a91906113b6565b6103ce565b005b34801561012d57600080fd5b5061014860048036038101906101439190611309565b6105c0565b005b34801561015657600080fd5b50610171600480360381019061016c9190611336565b610748565b005b34801561017f57600080fd5b5061019a60048036038101906101959190611309565b6108dd565b6040516101a79190611638565b60405180910390f35b3480156101bc57600080fd5b506101d760048036038101906101d29190611309565b6109e7565b6040516101e49190611616565b60405180910390f35b3480156101f957600080fd5b50610202610ab4565b60405161020f9190611675565b60405180910390f35b610232600480360381019061022d9190611309565b610ada565b005b34801561024057600080fd5b50610249610bf3565b60405161025691906115d2565b60405180910390f35b34801561026b57600080fd5b5061028660048036038101906102819190611376565b610c17565b005b34801561029457600080fd5b506102af60048036038101906102aa9190611309565b610c7e565b6040516102bc9190611690565b60405180910390f35b3480156102d157600080fd5b506102ec60048036038101906102e79190611336565b610e1e565b6040516102f99190611690565b60405180910390f35b34801561030e57600080fd5b5061032960048036038101906103249190611403565b610f3b565b005b34801561033757600080fd5b50610352600480360381019061034d9190611309565b610f7f565b005b34801561036057600080fd5b5061037b60048036038101906103769190611336565b610fce565b6040516103889190611690565b60405180910390f35b34801561039d57600080fd5b506103b860048036038101906103b39190611309565b611098565b6040516103c5919061165a565b60405180910390f35b6000805b838390508110156105385760008484838181106103f2576103f1611969565b5b90506020020160208101906104079190611309565b905061041381336110b8565b600061041f8233610e1e565b90506000811115610523576000600360008473ffffffffffffffffffffffffffffffffffffffff1673ffffffffffffffffffffffffffffffffffffffff16815260200190815260200160002060020160003373ffffffffffffffffffffffffffffffffffffffff1673ffffffffffffffffffffffffffffffffffffffff1681526020019081526020016000208190555080846104bb919061171d565b93503373ffffffffffffffffffffffffffffffffffffffff168273ffffffffffffffffffffffffffffffffffffffff167ffe3464cd748424446c37877c28ce5b700222c5bc9f90d908afcc4e5cb22707ff8360405161051a9190611690565b60405180910390a35b50508080610530906118c2565b9150506103d2565b506000811415610574576040517f846d8c5c00000000000000000000000000000000000000000000000000000000815260040160405180910390fd5b3373ffffffffffffffffffffffffffffffffffffffff166108fc829081150290604051600060405180830381858888f193505050501580156105ba573d6000803e3d6000fd5b50505050565b6105ca81336110b8565b60006105d68233610e1e565b90506000811415610613576040517f846d8c5c00000000000000000000000000000000000000000000000000000000815260040160405180910390fd5b6000600360008473ffffffffffffffffffffffffffffffffffffffff1673ffffffffffffffffffffffffffffffffffffffff16815260200190815260200160002060020160003373ffffffffffffffffffffffffffffffffffffffff1673ffffffffffffffffffffffffffffffffffffffff168152602001908152602001600020819055503373ffffffffffffffffffffffffffffffffffffffff166108fc829081150290604051600060405180830381858888f193505050501580156106de573d6000803e3d6000fd5b503373ffffffffffffffffffffffffffffffffffffffff168273ffffffffffffffffffffffffffffffffffffffff167ffe3464cd748424446c37877c28ce5b700222c5bc9f90d908afcc4e5cb22707ff8360405161073c9190611690565b60405180910390a35050565b60011515600160003373ffffffffffffffffffffffffffffffffffffffff1673ffffffffffffffffffffffffffffffffffffffff16815260200190815260200160002060009054906101000a905050506000600360008473ffffffffffffffffffffffffffffffffffffffff1673ffffffffffffffffffffffffffffffffffffffff168152602001908152602001600020905080600001548160010160008473ffffffffffffffffffffffffffffffffffffffff1673ffffffffffffffffffffffffffffffffffffffff1681526020019081526020016000208190555060006108318484610fce565b11156108d857600460008373ffffffffffffffffffffffffffffffffffffffff1673ffffffffffffffffffffffffffffffffffffffff168152602001908152602001600020839080600181540180825580915050600190039060005260206000200160009091909190916101000a81548173ffffffffffffffffffffffffffffffffffffffff021916908373ffffffffffffffffffffffffffffffffffffffff1602179055505b505050565b606060006108ea836109e7565b90506000815167ffffffffffffffff81111561090957610908611998565b5b60405190808252806020026020018201604052801561094257816020015b61092f61122f565b8152602001906001900390816109275790505b50905060005b82518110156109dc57600083828151811061096657610965611969565b5b60200260200101519050600061097c8288610e1e565b905060405180604001604052808281526020018373ffffffffffffffffffffffffffffffffffffffff168152508484815181106109bc576109bb611969565b5b6020026020010181905250505080806109d4906118c2565b915050610948565b508092505050919050565b6060600460008373ffffffffffffffffffffffffffffffffffffffff1673ffffffffffffffffffffffffffffffffffffffff168152602001908152602001600020805480602002602001604051908101604052809291908181526020018280548015610aa857602002820191906000526020600020905b8160009054906101000a900473ffffffffffffffffffffffffffffffffffffffff1673ffffffffffffffffffffffffffffffffffffffff1681526020019060010190808311610a5e575b50505050509050919050565b600260009054906101000a900473ffffffffffffffffffffffffffffffffffffffff1681565b60011515600160003373ffffffffffffffffffffffffffffffffffffffff1673ffffffffffffffffffffffffffffffffffffffff16815260200190815260200160002060009054906101000a905050506000610b3582610c7e565b90506000811415610b72576040517f3c702ac400000000000000000000000000000000000000000000000000000000815260040160405180910390fd5b6000600360008473ffffffffffffffffffffffffffffffffffffffff1673ffffffffffffffffffffffffffffffffffffffff168152602001908152602001600020905081670de0b6b3a764000034610bca91906117a4565b610bd49190611773565b816000016000828254610be7919061171d565b92505081905550505050565b60008054906101000a900473ffffffffffffffffffffffffffffffffffffffff1681565b60008054906101000a90505080600160008473ffffffffffffffffffffffffffffffffffffffff1673ffffffffffffffffffffffffffffffffffffffff16815260200190815260200160002060006101000a81548160ff0219169083151502179055505050565b6000670de0b6b3a7640000600260009054906101000a900473ffffffffffffffffffffffffffffffffffffffff1673ffffffffffffffffffffffffffffffffffffffff16634bcaad0b84600260009054906101000a900473ffffffffffffffffffffffffffffffffffffffff166040518363ffffffff1660e01b8152600401610d089291906115ed565b60206040518083038186803b158015610d2057600080fd5b505afa158015610d34573d6000803e3d6000fd5b505050506040513d601f19601f82011682018060405250810190610d589190611430565b600260009054906101000a900473ffffffffffffffffffffffffffffffffffffffff1673ffffffffffffffffffffffffffffffffffffffff166316593dcf856040518263ffffffff1660e01b8152600401610db391906115d2565b60206040518083038186803b158015610dcb57600080fd5b505afa158015610ddf573d6000803e3d6000fd5b505050506040513d601f19601f82011682018060405250810190610e039190611430565b610e0d91906117fe565b610e1791906117a4565b9050919050565b600080600360008573ffffffffffffffffffffffffffffffffffffffff1673ffffffffffffffffffffffffffffffffffffffff16815260200190815260200160002090506000610e6e8585610fce565b90506000818360010160008773ffffffffffffffffffffffffffffffffffffffff1673ffffffffffffffffffffffffffffffffffffffff168152602001908152602001600020548460000154610ec491906117fe565b610ece91906117a4565b90508260020160008673ffffffffffffffffffffffffffffffffffffffff1673ffffffffffffffffffffffffffffffffffffffff16815260200190815260200160002054670de0b6b3a764000082610f269190611773565b610f30919061171d565b935050505092915050565b80600260006101000a81548173ffffffffffffffffffffffffffffffffffffffff021916908373ffffffffffffffffffffffffffffffffffffffff16021790555050565b60008054906101000a905050806000806101000a81548173ffffffffffffffffffffffffffffffffffffffff021916908373ffffffffffffffffffffffffffffffffffffffff16021790555050565b6000670de0b6b3a7640000600260009054906101000a900473ffffffffffffffffffffffffffffffffffffffff1673ffffffffffffffffffffffffffffffffffffffff16634bcaad0b85856040518363ffffffff1660e01b81526004016110369291906115ed565b60206040518083038186803b15801561104e57600080fd5b505afa158015611062573d6000803e3d6000fd5b505050506040513d601f19601f820116820180604052508101906110869190611430565b61109091906117a4565b905092915050565b60016020528060005260406000206000915054906101000a900460ff1681565b6000600360008473ffffffffffffffffffffffffffffffffffffffff1673ffffffffffffffffffffffffffffffffffffffff168152602001908152602001600020905060006111078484610fce565b90506000811115611229576000818360010160008673ffffffffffffffffffffffffffffffffffffffff1673ffffffffffffffffffffffffffffffffffffffff16815260200190815260200160002054846000015461116691906117fe565b61117091906117a4565b9050670de0b6b3a7640000816111869190611773565b8360020160008673ffffffffffffffffffffffffffffffffffffffff1673ffffffffffffffffffffffffffffffffffffffff16815260200190815260200160002060008282546111d6919061171d565b9250508190555082600001548360010160008673ffffffffffffffffffffffffffffffffffffffff1673ffffffffffffffffffffffffffffffffffffffff16815260200190815260200160002081905550505b50505050565b604051806040016040528060008152602001600073ffffffffffffffffffffffffffffffffffffffff1681525090565b60008135905061126e816119e0565b92915050565b60008083601f84011261128a576112896119cc565b5b8235905067ffffffffffffffff8111156112a7576112a66119c7565b5b6020830191508360208202830111156112c3576112c26119d1565b5b9250929050565b6000813590506112d9816119f7565b92915050565b6000813590506112ee81611a0e565b92915050565b60008151905061130381611a25565b92915050565b60006020828403121561131f5761131e6119db565b5b600061132d8482850161125f565b91505092915050565b6000806040838503121561134d5761134c6119db565b5b600061135b8582860161125f565b925050602061136c8582860161125f565b9150509250929050565b6000806040838503121561138d5761138c6119db565b5b600061139b8582860161125f565b92505060206113ac858286016112ca565b9150509250929050565b600080602083850312156113cd576113cc6119db565b5b600083013567ffffffffffffffff8111156113eb576113ea6119d6565b5b6113f785828601611274565b92509250509250929050565b600060208284031215611419576114186119db565b5b6000611427848285016112df565b91505092915050565b600060208284031215611446576114456119db565b5b6000611454848285016112f4565b91505092915050565b6000611469838361148d565b60208301905092915050565b60006114818383611585565b60408301905092915050565b61149681611832565b82525050565b6114a581611832565b82525050565b60006114b6826116cb565b6114c081856116fb565b93506114cb836116ab565b8060005b838110156114fc5781516114e3888261145d565b97506114ee836116e1565b9250506001810190506114cf565b5085935050505092915050565b6000611514826116d6565b61151e818561170c565b9350611529836116bb565b8060005b8381101561155a5781516115418882611475565b975061154c836116ee565b92505060018101905061152d565b5085935050505092915050565b61157081611844565b82525050565b61157f8161188c565b82525050565b60408201600082015161159b60008501826115b4565b5060208201516115ae602085018261148d565b50505050565b6115bd81611882565b82525050565b6115cc81611882565b82525050565b60006020820190506115e7600083018461149c565b92915050565b6000604082019050611602600083018561149c565b61160f602083018461149c565b9392505050565b6000602082019050818103600083015261163081846114ab565b905092915050565b600060208201905081810360008301526116528184611509565b905092915050565b600060208201905061166f6000830184611567565b92915050565b600060208201905061168a6000830184611576565b92915050565b60006020820190506116a560008301846115c3565b92915050565b6000819050602082019050919050565b6000819050602082019050919050565b600081519050919050565b600081519050919050565b6000602082019050919050565b6000602082019050919050565b600082825260208201905092915050565b600082825260208201905092915050565b600061172882611882565b915061173383611882565b9250827fffffffffffffffffffffffffffffffffffffffffffffffffffffffffffffffff038211156117685761176761190b565b5b828201905092915050565b600061177e82611882565b915061178983611882565b9250826117995761179861193a565b5b828204905092915050565b60006117af82611882565b91506117ba83611882565b9250817fffffffffffffffffffffffffffffffffffffffffffffffffffffffffffffffff04831182151516156117f3576117f261190b565b5b828202905092915050565b600061180982611882565b915061181483611882565b9250828210156118275761182661190b565b5b828203905092915050565b600061183d82611862565b9050919050565b60008115159050919050565b600061185b82611832565b9050919050565b600073ffffffffffffffffffffffffffffffffffffffff82169050919050565b6000819050919050565b60006118978261189e565b9050919050565b60006118a9826118b0565b9050919050565b60006118bb82611862565b9050919050565b60006118cd82611882565b91507fffffffffffffffffffffffffffffffffffffffffffffffffffffffffffffffff821415611900576118ff61190b565b5b600182019050919050565b7f4e487b7100000000000000000000000000000000000000000000000000000000600052601160045260246000fd5b7f4e487b7100000000000000000000000000000000000000000000000000000000600052601260045260246000fd5b7f4e487b7100000000000000000000000000000000000000000000000000000000600052603260045260246000fd5b7f4e487b7100000000000000000000000000000000000000000000000000000000600052604160045260246000fd5b600080fd5b600080fd5b600080fd5b600080fd5b600080fd5b6119e981611832565b81146119f457600080fd5b50565b611a0081611844565b8114611a0b57600080fd5b50565b611a1781611850565b8114611a2257600080fd5b50565b611a2e81611882565b8114611a3957600080fd5b5056fea26469706673582212205cac65a2fde1e0be5d4c9b96c8cbe78addcfabd4e0ef8e59a8df7bbda6e1098264736f6c63430008070033",
  "linkReferences": {},
  "deployedLinkReferences": {}
}