{
  "_format": "hh-sol-artifact-1",
  "contractName": "MockCurvesForFee",
  "sourceName": "contracts/Test/MockCurvesForFee.sol",
  "abi": [
    {
      "inputs": [
        {
          "internalType": "address",
          "name": "token",
          "type": "address"
        },
        {
          "internalType": "address",
          "name": "account",
          "type": "address"
        }
      ],
      "name": "curvesTokenBalance",
      "outputs": [
        {
          "internalType": "uint256",
          "name": "",
          "type": "uint256"
        }
      ],
      "stateMutability": "view",
      "type": "function"
    },
    {
      "inputs": [
        {
          "internalType": "address",
          "name": "token",
          "type": "address"
        }
      ],
      "name": "curvesTokenSupply",
      "outputs": [
        {
          "internalType": "uint256",
          "name": "",
          "type": "uint256"
        }
      ],
      "stateMutability": "view",
      "type": "function"
    }
  ],
  "bytecode": "0x608060405234801561001057600080fd5b50610372806100206000396000f3fe608060405234801561001057600080fd5b50600436106100365760003560e01c806316593dcf1461003b5780634bcaad0b1461006b575b600080fd5b610055600480360381019061005091906101df565b61009b565b60405161006291906102b2565b60405180910390f35b6100856004803603810190610080919061020c565b610122565b60405161009291906102b2565b60405180910390f35b60008173ffffffffffffffffffffffffffffffffffffffff166318160ddd6040518163ffffffff1660e01b815260040160206040518083038186803b1580156100e357600080fd5b505afa1580156100f7573d6000803e3d6000fd5b505050506040513d601f19601f8201168201806040525081019061011b919061024c565b9050919050565b60008273ffffffffffffffffffffffffffffffffffffffff166370a08231836040518263ffffffff1660e01b815260040161015d9190610297565b60206040518083038186803b15801561017557600080fd5b505afa158015610189573d6000803e3d6000fd5b505050506040513d601f19601f820116820180604052508101906101ad919061024c565b905092915050565b6000813590506101c48161030e565b92915050565b6000815190506101d981610325565b92915050565b6000602082840312156101f5576101f4610309565b5b6000610203848285016101b5565b91505092915050565b6000806040838503121561022357610222610309565b5b6000610231858286016101b5565b9250506020610242858286016101b5565b9150509250929050565b60006020828403121561026257610261610309565b5b6000610270848285016101ca565b91505092915050565b610282816102cd565b82525050565b610291816102ff565b82525050565b60006020820190506102ac6000830184610279565b92915050565b60006020820190506102c76000830184610288565b92915050565b60006102d8826102df565b9050919050565b600073ffffffffffffffffffffffffffffffffffffffff82169050919050565b6000819050919050565b600080fd5b610317816102cd565b811461032257600080fd5b50565b61032e816102ff565b811461033957600080fd5b5056fea26469706673582212205536c34bb7e5d5619d1dd1d9df40432d73e517027e73c4514537633602a8e51a64736f6c63430008070033",
  "linkReferences": {},
  "deployedLinkReferences": {}
}