{
  "_format": "hh-sol-artifact-1",
  "contractName": "Security",
  "sourceName": "contracts/Security.sol",
  "abi": [
    {
      "inputs": [],
      "stateMutability": "nonpayable",
      "type": "constructor"
    },
    {
      "inputs": [
        {
          "internalType": "address",
          "name": "",
          "type": "address"
        }
      ],
      "name": "managers",
      "outputs": [
        {
          "internalType": "bool",
          "name": "",
          "type": "bool"
        }
      ],
      "stateMutability": "view",
      "type": "function"
    },
    {
      "inputs": [],
      "name": "owner",
      "outputs": [
        {
          "internalType": "address",
          "name": "",
          "type": "address"
        }
      ],
      "stateMutability": "view",
      "type": "function"
    },
    {
      "inputs": [
        {
          "internalType": "address",
          "name": "manager_",
          "type": "address"
        },
        {
          "internalType": "bool",
          "name": "value",
          "type": "bool"
        }
      ],
      "name": "setManager",
      "outputs": [],
      "stateMutability": "nonpayable",
      "type": "function"
    },
    {
      "inputs": [
        {
          "internalType": "address",
          "name": "owner_",
          "type": "address"
        }
      ],
      "name": "transferOwnership",
      "outputs": [],
      "stateMutability": "nonpayable",
      "type": "function"
    }
  ],
  "bytecode": "0x608060405234801561001057600080fd5b50336000806101000a81548173ffffffffffffffffffffffffffffffffffffffff021916908373ffffffffffffffffffffffffffffffffffffffff16021790555060018060003373ffffffffffffffffffffffffffffffffffffffff1673ffffffffffffffffffffffffffffffffffffffff16815260200190815260200160002060006101000a81548160ff021916908315150217905550610363806100b76000396000f3fe608060405234801561001057600080fd5b506004361061004c5760003560e01c80638da5cb5b14610051578063a5e90eee1461006f578063f2fde38b1461008b578063fdff9b4d146100a7575b600080fd5b6100596100d7565b6040516100669190610286565b60405180910390f35b61008960048036038101906100849190610228565b6100fb565b005b6100a560048036038101906100a091906101fb565b610162565b005b6100c160048036038101906100bc91906101fb565b6101b1565b6040516100ce91906102a1565b60405180910390f35b60008054906101000a900473ffffffffffffffffffffffffffffffffffffffff1681565b60008054906101000a90505080600160008473ffffffffffffffffffffffffffffffffffffffff1673ffffffffffffffffffffffffffffffffffffffff16815260200190815260200160002060006101000a81548160ff0219169083151502179055505050565b60008054906101000a905050806000806101000a81548173ffffffffffffffffffffffffffffffffffffffff021916908373ffffffffffffffffffffffffffffffffffffffff16021790555050565b60016020528060005260406000206000915054906101000a900460ff1681565b6000813590506101e0816102ff565b92915050565b6000813590506101f581610316565b92915050565b600060208284031215610211576102106102fa565b5b600061021f848285016101d1565b91505092915050565b6000806040838503121561023f5761023e6102fa565b5b600061024d858286016101d1565b925050602061025e858286016101e6565b9150509250929050565b610271816102bc565b82525050565b610280816102ce565b82525050565b600060208201905061029b6000830184610268565b92915050565b60006020820190506102b66000830184610277565b92915050565b60006102c7826102da565b9050919050565b60008115159050919050565b600073ffffffffffffffffffffffffffffffffffffffff82169050919050565b600080fd5b610308816102bc565b811461031357600080fd5b50565b61031f816102ce565b811461032a57600080fd5b5056fea2646970667358221220d6042141fdb782a464f756e634d7b1b1057c12020e6fd7d523c50245f25ee13b64736f6c63430008070033",
  "linkReferences": {},
  "deployedLinkReferences": {}
}